{
  "_format": "hh-sol-artifact-1",
  "contractName": "StateManager",
  "sourceName": "contracts/StateManager.sol",
  "abi": [
    {
      "inputs": [
        {
          "internalType": "address",
          "name": "initialAdmin",
          "type": "address"
        }
      ],
      "stateMutability": "nonpayable",
      "type": "constructor"
    },
    {
      "inputs": [],
      "name": "AccessControlBadConfirmation",
      "type": "error"
    },
    {
      "inputs": [
        {
          "internalType": "address",
          "name": "account",
          "type": "address"
        },
        {
          "internalType": "bytes32",
          "name": "neededRole",
          "type": "bytes32"
        }
      ],
      "name": "AccessControlUnauthorizedAccount",
      "type": "error"
    },
    {
      "inputs": [
        {
          "internalType": "bytes32",
          "name": "id",
          "type": "bytes32"
        },
        {
          "internalType": "enum StateManager.ValueType",
          "name": "expected",
          "type": "uint8"
        },
        {
          "internalType": "enum StateManager.ValueType",
          "name": "actual",
          "type": "uint8"
        }
      ],
      "name": "InvalidValueType",
      "type": "error"
    },
    {
      "inputs": [],
      "name": "NotAuthorized",
      "type": "error"
    },
    {
      "anonymous": false,
      "inputs": [
        {
          "indexed": true,
          "internalType": "bytes32",
          "name": "id",
          "type": "bytes32"
        },
        {
          "indexed": false,
          "internalType": "bytes32",
          "name": "requiredRole",
          "type": "bytes32"
        },
        {
          "indexed": true,
          "internalType": "address",
          "name": "actor",
          "type": "address"
        }
      ],
      "name": "ConfigCleared",
      "type": "event"
    },
    {
      "anonymous": false,
      "inputs": [
        {
          "indexed": true,
          "internalType": "bytes32",
          "name": "id",
          "type": "bytes32"
        },
        {
          "indexed": true,
          "internalType": "enum StateManager.ValueType",
          "name": "valueType",
          "type": "uint8"
        },
        {
          "indexed": false,
          "internalType": "bytes32",
          "name": "previousData",
          "type": "bytes32"
        },
        {
          "indexed": false,
          "internalType": "bytes32",
          "name": "newData",
          "type": "bytes32"
        },
        {
          "indexed": false,
          "internalType": "bytes32",
          "name": "requiredRole",
          "type": "bytes32"
        },
        {
          "indexed": true,
          "internalType": "address",
          "name": "actor",
          "type": "address"
        }
      ],
      "name": "ConfigUpdated",
      "type": "event"
    },
    {
      "anonymous": false,
      "inputs": [
        {
          "indexed": true,
          "internalType": "address",
          "name": "target",
          "type": "address"
        },
        {
          "indexed": true,
          "internalType": "bytes32",
          "name": "operation",
          "type": "bytes32"
        },
        {
          "indexed": false,
          "internalType": "address",
          "name": "module",
          "type": "address"
        },
        {
          "indexed": true,
          "internalType": "address",
          "name": "actor",
          "type": "address"
        }
      ],
      "name": "GovernanceModuleOperationUpdated",
      "type": "event"
    },
    {
      "anonymous": false,
      "inputs": [
        {
          "indexed": true,
          "internalType": "address",
          "name": "target",
          "type": "address"
        },
        {
          "indexed": false,
          "internalType": "address",
          "name": "module",
          "type": "address"
        },
        {
          "indexed": true,
          "internalType": "address",
          "name": "actor",
          "type": "address"
        }
      ],
      "name": "GovernanceModuleUpdated",
      "type": "event"
    },
    {
      "anonymous": false,
      "inputs": [
        {
          "indexed": true,
          "internalType": "address",
          "name": "target",
          "type": "address"
        },
        {
          "indexed": true,
          "internalType": "bytes32",
          "name": "operation",
          "type": "bytes32"
        },
        {
          "indexed": false,
          "internalType": "bool",
          "name": "isStatic",
          "type": "bool"
        },
        {
          "indexed": true,
          "internalType": "address",
          "name": "actor",
          "type": "address"
        }
      ],
      "name": "GovernanceStaticOperationUpdated",
      "type": "event"
    },
    {
      "anonymous": false,
      "inputs": [
        {
          "indexed": true,
          "internalType": "address",
          "name": "target",
          "type": "address"
        },
        {
          "indexed": false,
          "internalType": "bool",
          "name": "isStatic",
          "type": "bool"
        },
        {
          "indexed": true,
          "internalType": "address",
          "name": "actor",
          "type": "address"
        }
      ],
      "name": "GovernanceStaticUpdated",
      "type": "event"
    },
    {
      "anonymous": false,
      "inputs": [
        {
          "indexed": true,
          "internalType": "bytes32",
          "name": "id",
          "type": "bytes32"
        },
        {
          "indexed": true,
          "internalType": "address",
          "name": "account",
          "type": "address"
        },
        {
          "indexed": false,
          "internalType": "bool",
          "name": "allowed",
          "type": "bool"
        },
        {
          "indexed": true,
          "internalType": "address",
          "name": "actor",
          "type": "address"
        }
      ],
      "name": "IdWriterUpdated",
      "type": "event"
    },
    {
      "anonymous": false,
      "inputs": [
        {
          "indexed": true,
          "internalType": "bytes32",
          "name": "role",
          "type": "bytes32"
        },
        {
          "indexed": true,
          "internalType": "bytes32",
          "name": "previousAdminRole",
          "type": "bytes32"
        },
        {
          "indexed": true,
          "internalType": "bytes32",
          "name": "newAdminRole",
          "type": "bytes32"
        }
      ],
      "name": "RoleAdminChanged",
      "type": "event"
    },
    {
      "anonymous": false,
      "inputs": [
        {
          "indexed": true,
          "internalType": "bytes32",
          "name": "role",
          "type": "bytes32"
        },
        {
          "indexed": true,
          "internalType": "address",
          "name": "account",
          "type": "address"
        },
        {
          "indexed": true,
          "internalType": "address",
          "name": "sender",
          "type": "address"
        }
      ],
      "name": "RoleGranted",
      "type": "event"
    },
    {
      "anonymous": false,
      "inputs": [
        {
          "indexed": true,
          "internalType": "bytes32",
          "name": "role",
          "type": "bytes32"
        },
        {
          "indexed": true,
          "internalType": "address",
          "name": "account",
          "type": "address"
        },
        {
          "indexed": true,
          "internalType": "address",
          "name": "sender",
          "type": "address"
        }
      ],
      "name": "RoleRevoked",
      "type": "event"
    },
    {
      "inputs": [],
      "name": "DEFAULT_ADMIN_ROLE",
      "outputs": [
        {
          "internalType": "bytes32",
          "name": "",
          "type": "bytes32"
        }
      ],
      "stateMutability": "view",
      "type": "function"
    },
    {
      "inputs": [
        {
          "internalType": "address",
          "name": "stateManagerAddress",
          "type": "address"
        },
        {
          "internalType": "bytes32",
          "name": "operation",
          "type": "bytes32"
        },
        {
          "internalType": "bytes",
          "name": "context",
          "type": "bytes"
        }
      ],
      "name": "applyGovernanceModule",
      "outputs": [
        {
          "internalType": "bytes",
          "name": "",
          "type": "bytes"
        }
      ],
      "stateMutability": "nonpayable",
      "type": "function"
    },
    {
      "inputs": [
        {
          "internalType": "bytes32",
          "name": "id",
          "type": "bytes32"
        }
      ],
      "name": "clear",
      "outputs": [],
      "stateMutability": "nonpayable",
      "type": "function"
    },
    {
      "inputs": [
        {
          "internalType": "bytes32",
          "name": "id",
          "type": "bytes32"
        }
      ],
      "name": "getAddress",
      "outputs": [
        {
          "internalType": "address",
          "name": "",
          "type": "address"
        }
      ],
      "stateMutability": "view",
      "type": "function"
    },
    {
      "inputs": [
        {
          "internalType": "bytes32",
          "name": "id",
          "type": "bytes32"
        }
      ],
      "name": "getBool",
      "outputs": [
        {
          "internalType": "bool",
          "name": "",
          "type": "bool"
        }
      ],
      "stateMutability": "view",
      "type": "function"
    },
    {
      "inputs": [
        {
          "internalType": "bytes32",
          "name": "id",
          "type": "bytes32"
        }
      ],
      "name": "getBytes32",
      "outputs": [
        {
          "internalType": "bytes32",
          "name": "",
          "type": "bytes32"
        }
      ],
      "stateMutability": "view",
      "type": "function"
    },
    {
      "inputs": [
        {
          "internalType": "address",
          "name": "target",
          "type": "address"
        }
      ],
      "name": "getGovernanceModule",
      "outputs": [
        {
          "internalType": "address",
          "name": "",
          "type": "address"
        }
      ],
      "stateMutability": "view",
      "type": "function"
    },
    {
      "inputs": [
        {
          "internalType": "address",
          "name": "target",
          "type": "address"
        },
        {
          "internalType": "bytes32",
          "name": "operation",
          "type": "bytes32"
        }
      ],
      "name": "getGovernanceModuleForOperation",
      "outputs": [
        {
          "internalType": "address",
          "name": "",
          "type": "address"
        }
      ],
      "stateMutability": "view",
      "type": "function"
    },
    {
      "inputs": [
        {
          "internalType": "bytes32",
          "name": "id",
          "type": "bytes32"
        }
      ],
      "name": "getMetadata",
      "outputs": [
        {
          "internalType": "enum StateManager.ValueType",
          "name": "valueType",
          "type": "uint8"
        },
        {
          "internalType": "bytes32",
          "name": "requiredRole",
          "type": "bytes32"
        }
      ],
      "stateMutability": "view",
      "type": "function"
    },
    {
      "inputs": [
        {
          "internalType": "bytes32",
          "name": "role",
          "type": "bytes32"
        }
      ],
      "name": "getRoleAdmin",
      "outputs": [
        {
          "internalType": "bytes32",
          "name": "",
          "type": "bytes32"
        }
      ],
      "stateMutability": "view",
      "type": "function"
    },
    {
      "inputs": [
        {
          "internalType": "bytes32",
          "name": "id",
          "type": "bytes32"
        }
      ],
      "name": "getUint",
      "outputs": [
        {
          "internalType": "uint256",
          "name": "",
          "type": "uint256"
        }
      ],
      "stateMutability": "view",
      "type": "function"
    },
    {
      "inputs": [
        {
          "internalType": "bytes32",
          "name": "role",
          "type": "bytes32"
        },
        {
          "internalType": "address",
          "name": "account",
          "type": "address"
        }
      ],
      "name": "grantRole",
      "outputs": [],
      "stateMutability": "nonpayable",
      "type": "function"
    },
    {
      "inputs": [
        {
          "internalType": "bytes32",
          "name": "id",
          "type": "bytes32"
        }
      ],
      "name": "has",
      "outputs": [
        {
          "internalType": "bool",
          "name": "",
          "type": "bool"
        }
      ],
      "stateMutability": "view",
      "type": "function"
    },
    {
      "inputs": [
        {
          "internalType": "bytes32",
          "name": "role",
          "type": "bytes32"
        },
        {
          "internalType": "address",
          "name": "account",
          "type": "address"
        }
      ],
      "name": "hasRole",
      "outputs": [
        {
          "internalType": "bool",
          "name": "",
          "type": "bool"
        }
      ],
      "stateMutability": "view",
      "type": "function"
    },
    {
      "inputs": [
        {
          "internalType": "bytes32",
          "name": "id",
          "type": "bytes32"
        },
        {
          "internalType": "address",
          "name": "account",
          "type": "address"
        }
      ],
      "name": "isIdWriter",
      "outputs": [
        {
          "internalType": "bool",
          "name": "",
          "type": "bool"
        }
      ],
      "stateMutability": "view",
      "type": "function"
    },
    {
      "inputs": [
        {
          "internalType": "bytes32",
          "name": "role",
          "type": "bytes32"
        },
        {
          "internalType": "address",
          "name": "callerConfirmation",
          "type": "address"
        }
      ],
      "name": "renounceRole",
      "outputs": [],
      "stateMutability": "nonpayable",
      "type": "function"
    },
    {
      "inputs": [
        {
          "internalType": "bytes32",
          "name": "role",
          "type": "bytes32"
        },
        {
          "internalType": "address",
          "name": "account",
          "type": "address"
        }
      ],
      "name": "revokeRole",
      "outputs": [],
      "stateMutability": "nonpayable",
      "type": "function"
    },
    {
      "inputs": [
        {
          "internalType": "bytes32",
          "name": "id",
          "type": "bytes32"
        },
        {
          "internalType": "address",
          "name": "value",
          "type": "address"
        },
        {
          "internalType": "bytes32",
          "name": "requiredRole",
          "type": "bytes32"
        }
      ],
      "name": "setAddress",
      "outputs": [],
      "stateMutability": "nonpayable",
      "type": "function"
    },
    {
      "inputs": [
        {
          "internalType": "bytes32",
          "name": "id",
          "type": "bytes32"
        },
        {
          "internalType": "bool",
          "name": "value",
          "type": "bool"
        },
        {
          "internalType": "bytes32",
          "name": "requiredRole",
          "type": "bytes32"
        }
      ],
      "name": "setBool",
      "outputs": [],
      "stateMutability": "nonpayable",
      "type": "function"
    },
    {
      "inputs": [
        {
          "internalType": "bytes32",
          "name": "id",
          "type": "bytes32"
        },
        {
          "internalType": "bytes32",
          "name": "value",
          "type": "bytes32"
        },
        {
          "internalType": "bytes32",
          "name": "requiredRole",
          "type": "bytes32"
        }
      ],
      "name": "setBytes32",
      "outputs": [],
      "stateMutability": "nonpayable",
      "type": "function"
    },
    {
      "inputs": [
        {
          "internalType": "address",
          "name": "target",
          "type": "address"
        },
        {
          "internalType": "address",
          "name": "module",
          "type": "address"
        }
      ],
      "name": "setGovernanceModule",
      "outputs": [],
      "stateMutability": "nonpayable",
      "type": "function"
    },
    {
      "inputs": [
        {
          "internalType": "address",
          "name": "target",
          "type": "address"
        },
        {
          "internalType": "bytes32",
          "name": "operation",
          "type": "bytes32"
        },
        {
          "internalType": "address",
          "name": "module",
          "type": "address"
        }
      ],
      "name": "setGovernanceModuleForOperation",
      "outputs": [],
      "stateMutability": "nonpayable",
      "type": "function"
    },
    {
      "inputs": [
        {
          "internalType": "address",
          "name": "target",
          "type": "address"
        },
        {
          "internalType": "bool",
          "name": "isStatic",
          "type": "bool"
        }
      ],
      "name": "setGovernanceStatic",
      "outputs": [],
      "stateMutability": "nonpayable",
      "type": "function"
    },
    {
      "inputs": [
        {
          "internalType": "address",
          "name": "target",
          "type": "address"
        },
        {
          "internalType": "bytes32",
          "name": "operation",
          "type": "bytes32"
        },
        {
          "internalType": "bool",
          "name": "isStatic",
          "type": "bool"
        }
      ],
      "name": "setGovernanceStaticForOperation",
      "outputs": [],
      "stateMutability": "nonpayable",
      "type": "function"
    },
    {
      "inputs": [
        {
          "internalType": "bytes32",
          "name": "id",
          "type": "bytes32"
        },
        {
          "internalType": "address",
          "name": "account",
          "type": "address"
        },
        {
          "internalType": "bool",
          "name": "allowed",
          "type": "bool"
        }
      ],
      "name": "setIdWriter",
      "outputs": [],
      "stateMutability": "nonpayable",
      "type": "function"
    },
    {
      "inputs": [
        {
          "internalType": "bytes32",
          "name": "id",
          "type": "bytes32"
        },
        {
          "internalType": "uint256",
          "name": "value",
          "type": "uint256"
        },
        {
          "internalType": "bytes32",
          "name": "requiredRole",
          "type": "bytes32"
        }
      ],
      "name": "setUint",
      "outputs": [],
      "stateMutability": "nonpayable",
      "type": "function"
    },
    {
      "inputs": [
        {
          "internalType": "bytes4",
          "name": "interfaceId",
          "type": "bytes4"
        }
      ],
      "name": "supportsInterface",
      "outputs": [
        {
          "internalType": "bool",
          "name": "",
          "type": "bool"
        }
      ],
      "stateMutability": "view",
      "type": "function"
    }
  ],
  "bytecode": "0x60806040523480156200001157600080fd5b5060405162001c9438038062001c94833981016040819052620000349162000120565b6001600160a01b0381166200005c5760405163ea8e4eb560e01b815260040160405180910390fd5b6200006960008262000071565b505062000152565b6000828152602081815260408083206001600160a01b038516845290915281205460ff1662000116576000838152602081815260408083206001600160a01b03861684529091529020805460ff19166001179055620000cd3390565b6001600160a01b0316826001600160a01b0316847f2f8788117e7eff1d82e926ec794901d17c78024a50270940304540a733656f0d60405160405180910390a45060016200011a565b5060005b92915050565b6000602082840312156200013357600080fd5b81516001600160a01b03811681146200014b57600080fd5b9392505050565b611b3280620001626000396000f3fe608060405234801561001057600080fd5b50600436106101a95760003560e01c80637ae1cfca116100f9578063a5961b4c11610097578063b7dc560f11610071578063b7dc560f146103f2578063bd02d0f514610405578063d547741f14610418578063e6c2353a1461042b57600080fd5b8063a5961b4c14610392578063a6ed563e146103cc578063b3a4b7ea146103df57600080fd5b806391d14854116100d357806391d148541461035157806397040a4514610364578063a14ff85714610377578063a217fddf1461038a57600080fd5b80637ae1cfca146103185780637c65c9b51461032b578063814bd2ea1461033e57600080fd5b8063333d5e4e11610166578063483c2eeb11610140578063483c2eeb146102bf5780634cd59bb6146102d25780634f9e5d72146102e55780636da5b90f1461030557600080fd5b8063333d5e4e146102865780633350bcba1461029957806336568abe146102ac57600080fd5b806301ffc9a7146101ae5780630462a4be146101d657806307948006146101eb57806321f8a7211461022f578063248a9ca3146102425780632f2ff15d14610273575b600080fd5b6101c16101bc3660046115d6565b610464565b60405190151581526020015b60405180910390f35b6101e96101e436600461161c565b61049b565b005b6102176101f9366004611658565b6001600160a01b039081166000908152600360205260409020541690565b6040516001600160a01b0390911681526020016101cd565b61021761023d366004611673565b610566565b610265610250366004611673565b60009081526020819052604090206001015490565b6040519081526020016101cd565b6101e961028136600461168c565b61060a565b6101e96102943660046116b8565b610635565b6101e96102a73660046116f2565b6106eb565b6101e96102ba36600461168c565b610794565b6101e96102cd36600461171c565b6107cc565b6101e96102e0366004611751565b6107ff565b6102f86102f33660046117f3565b6108b3565b6040516101cd91906118dd565b6101e96103133660046118f0565b610aac565b6101c1610326366004611673565b610adf565b6101e9610339366004611915565b610b85565b6101e961034c366004611948565b610dce565b6101c161035f36600461168c565b610e01565b6101e9610372366004611673565b610e2a565b6101e9610385366004611948565b610f2c565b610265600081565b6103be6103a0366004611673565b6000908152600160205260409020805460029091015460ff90911691565b6040516101cd9291906119ac565b6102656103da366004611673565b610f5f565b6102176103ed3660046119c7565b610ff8565b6101c1610400366004611673565b61104e565b610265610413366004611673565b61107c565b6101e961042636600461168c565b611115565b6101c161043936600461168c565b60009182526002602090815260408084206001600160a01b0393909316845291905290205460ff1690565b60006001600160e01b03198216637965db0b60e01b148061049557506301ffc9a760e01b6001600160e01b03198316145b92915050565b6104a6600033610e01565b6104c35760405163ea8e4eb560e01b815260040160405180910390fd5b6001600160a01b0383166104f25760405162461bcd60e51b81526004016104e9906119f1565b60405180910390fd5b6001600160a01b03838116600081815260046020908152604080832087845282529182902080546001600160a01b0319169486169485179055905192835233928592917fb2ba44c9a40c039712510679fbce9010056a044250d1daae7b41f41c77186fa091015b60405180910390a4505050565b600081815260016020526040808220815160608101909252805483929190829060ff16600481111561059a5761059a611974565b60048111156105ab576105ab611974565b81526001828101546020830152600290920154604090910152909150815160048111156105da576105da611974565b146106005780516040516378e4430960e11b81526104e991859160019190600401611a19565b6020015192915050565b6000828152602081905260409020600101546106258161113a565b61062f8383611147565b50505050565b610640600033610e01565b61065d5760405163ea8e4eb560e01b815260040160405180910390fd5b6001600160a01b0382166106835760405162461bcd60e51b81526004016104e9906119f1565b6001600160a01b0382811660008181526003602090815260409182902080546001600160a01b0319169486169485179055905192835233927fc63aa1913e62688f1a7b2824cb588412191f1421cf59e0a1b1e194950b948e4b91015b60405180910390a35050565b6106f6600033610e01565b6107135760405163ea8e4eb560e01b815260040160405180910390fd5b6001600160a01b0382166107395760405162461bcd60e51b81526004016104e9906119f1565b6001600160a01b038216600081815260056020908152604091829020805460ff191685151590811790915591519182523392917f6a7046707ea448294209c83de9590e37f893ff0eece6af4b6f13a4d0766323a791016106df565b6001600160a01b03811633146107bd5760405163334bd91960e11b815260040160405180910390fd5b6107c782826111d9565b505050565b826107d78133611244565b6107f45760405163ea8e4eb560e01b815260040160405180910390fd5b61062f8484846112cf565b61080a600033610e01565b6108275760405163ea8e4eb560e01b815260040160405180910390fd5b6001600160a01b03831661084d5760405162461bcd60e51b81526004016104e9906119f1565b6001600160a01b0383166000818152600660209081526040808320868452825291829020805460ff191685151590811790915591519182523392859290917fe11f3ac3242c46ad309aeb1e8ac5b8f37d1048d6b2b1ec5065e85bc7ffe5633f9101610559565b3360009081526004602090815260408083208584529091529020546060906001600160a01b0316806108fa5750336000908152600360205260409020546001600160a01b03165b6001600160a01b03811661091e575050604080516020810190915260008152610aa5565b33600090815260066020908152604080832087845290915290205460ff168061095657503360009081526005602052604090205460ff165b8015610a2957600063b32d8e7560e01b87878760405160240161097b93929190611a42565b604051602081830303815290604052906001600160e01b0319166020820180516001600160e01b0383818316178352505050509050600080846001600160a01b0316836040516109cb9190611a72565b600060405180830381855afa9150503d8060008114610a06576040519150601f19603f3d011682016040523d82523d6000602084013e610a0b565b606091505b509150915081610a1d57805160208201fd5b9450610aa59350505050565b60405163b32d8e7560e01b81526001600160a01b0383169063b32d8e7590610a5990899089908990600401611a42565b6000604051808303816000875af1158015610a78573d6000803e3d6000fd5b505050506040513d6000823e601f3d908101601f19168201604052610aa09190810190611a8e565b925050505b9392505050565b82610ab78133611244565b610ad45760405163ea8e4eb560e01b815260040160405180910390fd5b61062f8484846112ea565b600081815260016020526040808220815160608101909252805483929190829060ff166004811115610b1357610b13611974565b6004811115610b2457610b24611974565b8152600182015460208201526002909101546040909101529050600381516004811115610b5357610b53611974565b14610b795780516040516378e4430960e11b81526104e991859160039190600401611a19565b60200151151592915050565b600083815260026020908152604080832083805290915290205460ff16610cd657610bb1600033610e01565b610bce5760405163ea8e4eb560e01b815260040160405180910390fd5b80610c1b5760405162461bcd60e51b815260206004820152601760248201527f666972737420777269746572206d75737420616c6c6f7700000000000000000060448201526064016104e9565b6001600160a01b038216610c625760405162461bcd60e51b815260206004820152600e60248201526d34b73b30b634b2103bb934ba32b960911b60448201526064016104e9565b600083815260026020908152604080832083805282528083208054600160ff1991821681179092556001600160a01b03871680865294839020805490911682179055905190815233929186917f17a915caf83eef0ecbfdc59941f87a1dba77d2117f241cdae79a9e1b0117f7cf9101610559565b6001600160a01b038216610d185760405162461bcd60e51b81526020600482015260096024820152683d32b9379030b2323960b91b60448201526064016104e9565b610d23600033610e01565b158015610d4a5750600083815260026020908152604080832033845290915290205460ff16155b15610d685760405163ea8e4eb560e01b815260040160405180910390fd5b60008381526002602090815260408083206001600160a01b03861680855290835292819020805460ff1916851515908117909155905190815233929186917f17a915caf83eef0ecbfdc59941f87a1dba77d2117f241cdae79a9e1b0117f7cf9101610559565b82610dd98133611244565b610df65760405163ea8e4eb560e01b815260040160405180910390fd5b61062f848484611300565b6000918252602082815260408084206001600160a01b0393909316845291905290205460ff1690565b80610e358133611244565b610e525760405163ea8e4eb560e01b815260040160405180910390fd5b6000828152600160205260408082208151606081019092528054829060ff166004811115610e8257610e82611974565b6004811115610e9357610e93611974565b8152600182015460208201526002909101546040909101529050600081516004811115610ec257610ec2611974565b146107c7576000838152600160208181526040808420805460ff19168155928301849055600290920192909255828101519051908152339185917f73e62bf5b87c4811549bf4c2d245452108e53b92a8307c901e3691610d2639c8910160405180910390a3505050565b82610f378133611244565b610f545760405163ea8e4eb560e01b815260040160405180910390fd5b61062f84848461130d565b600081815260016020526040808220815160608101909252805483929190829060ff166004811115610f9357610f93611974565b6004811115610fa457610fa4611974565b8152600182015460208201526002909101546040909101529050600481516004811115610fd357610fd3611974565b146106005780516040516378e4430960e11b81526104e9918591600491908201611a19565b6001600160a01b038083166000908152600460209081526040808320858452909152812054909116801561102d579050610495565b5050506001600160a01b039081166000908152600360205260409020541690565b60008060008381526001602052604090205460ff16600481111561107457611074611974565b141592915050565b600081815260016020526040808220815160608101909252805483929190829060ff1660048111156110b0576110b0611974565b60048111156110c1576110c1611974565b815260018201546020820152600291820154604090910152909150815160048111156110ef576110ef611974565b146106005780516040516378e4430960e11b81526104e991859160029190600401611a19565b6000828152602081905260409020600101546111308161113a565b61062f83836111d9565b611144813361131a565b50565b60006111538383610e01565b6111d1576000838152602081815260408083206001600160a01b03861684529091529020805460ff191660011790556111893390565b6001600160a01b0316826001600160a01b0316847f2f8788117e7eff1d82e926ec794901d17c78024a50270940304540a733656f0d60405160405180910390a4506001610495565b506000610495565b60006111e58383610e01565b156111d1576000838152602081815260408083206001600160a01b0386168085529252808320805460ff1916905551339286917ff6391f5c32d9c69d2a47ea670b442974b53935d1edc7fd64eb21e047a839171b9190a4506001610495565b60006112508183610e01565b1561125d57506001610495565b60008381526002602090815260408083206001600160a01b038616845290915290205460ff161561129057506001610495565b60008381526001602052604090206002015480158015906112b657506112b68184610e01565b156112c5576001915050610495565b5060009392505050565b6107c7836003846112e15760006112e4565b60015b84611357565b6107c78360016001600160a01b03851684611357565b6107c78360028484611357565b6107c78360048484611357565b6113248282610e01565b6113535760405163e2517d3f60e01b81526001600160a01b0382166004820152602481018390526044016104e9565b5050565b6000848152600160205260408082208151606081019092528054829060ff16600481111561138757611387611974565b600481111561139857611398611974565b8152600182015460208201526002909101546040909101529050600080825160048111156113c8576113c8611974565b1490508015816113fb57507f933da6496af1fb82c3e448cb4e10dc2067e9598edbaf298231b91509184e40378260400151145b1561143a5760405162461bcd60e51b815260206004820152600f60248201526e494420697320696d6d757461626c6560881b60448201526064016104e9565b604051806060016040528086600481111561145757611457611974565b8152602080820187905260409182018690526000898152600191829052919091208251815491929091839160ff199091169083600481111561149b5761149b611974565b0217905550602082015160018201556040909101516002909101558080156114dd5750600086815260026020908152604080832083805290915290205460ff16155b15611573576000868152600260209081526040808320838052909152808220805460ff1916600117905533825290205460ff166115735760008681526002602090815260408083203380855290835292819020805460ff191660019081179091559051908152829189917f17a915caf83eef0ecbfdc59941f87a1dba77d2117f241cdae79a9e1b0117f7cf910160405180910390a45b3385600481111561158657611586611974565b6020808501516040805191825291810188905290810186905288907fef489513d5f2df9c9187a3a3cd686ad815916bf74531dbeea849a18aa49a697b9060600160405180910390a4505050505050565b6000602082840312156115e857600080fd5b81356001600160e01b031981168114610aa557600080fd5b80356001600160a01b038116811461161757600080fd5b919050565b60008060006060848603121561163157600080fd5b61163a84611600565b92506020840135915061164f60408501611600565b90509250925092565b60006020828403121561166a57600080fd5b610aa582611600565b60006020828403121561168557600080fd5b5035919050565b6000806040838503121561169f57600080fd5b823591506116af60208401611600565b90509250929050565b600080604083850312156116cb57600080fd5b6116d483611600565b91506116af60208401611600565b8035801515811461161757600080fd5b6000806040838503121561170557600080fd5b61170e83611600565b91506116af602084016116e2565b60008060006060848603121561173157600080fd5b83359250611741602085016116e2565b9150604084013590509250925092565b60008060006060848603121561176657600080fd5b61176f84611600565b92506020840135915061164f604085016116e2565b634e487b7160e01b600052604160045260246000fd5b604051601f8201601f1916810167ffffffffffffffff811182821017156117c3576117c3611784565b604052919050565b600067ffffffffffffffff8211156117e5576117e5611784565b50601f01601f191660200190565b60008060006060848603121561180857600080fd5b61181184611600565b925060208401359150604084013567ffffffffffffffff81111561183457600080fd5b8401601f8101861361184557600080fd5b8035611858611853826117cb565b61179a565b81815287602083850101111561186d57600080fd5b816020840160208301376000602083830101528093505050509250925092565b60005b838110156118a8578181015183820152602001611890565b50506000910152565b600081518084526118c981602086016020860161188d565b601f01601f19169290920160200192915050565b602081526000610aa560208301846118b1565b60008060006060848603121561190557600080fd5b8335925061174160208501611600565b60008060006060848603121561192a57600080fd5b8335925061193a60208501611600565b915061164f604085016116e2565b60008060006060848603121561195d57600080fd5b505081359360208301359350604090920135919050565b634e487b7160e01b600052602160045260246000fd5b600581106119a857634e487b7160e01b600052602160045260246000fd5b9052565b604081016119ba828561198a565b8260208301529392505050565b600080604083850312156119da57600080fd5b6119e383611600565b946020939093013593505050565b6020808252600e908201526d1a5b9d985b1a59081d185c99d95d60921b604082015260600190565b83815260608101611a2d602083018561198a565b611a3a604083018461198a565b949350505050565b60018060a01b0384168152826020820152606060408201526000611a6960608301846118b1565b95945050505050565b60008251611a8481846020870161188d565b9190910192915050565b600060208284031215611aa057600080fd5b815167ffffffffffffffff811115611ab757600080fd5b8201601f81018413611ac857600080fd5b8051611ad6611853826117cb565b818152856020838501011115611aeb57600080fd5b611a6982602083016020860161188d56fea2646970667358221220aaf5b1b3ecf730699fb40e82588b59a851dbeb157b96d55ca8288451824dec2664736f6c63430008180033",
  "linkReferences": {},
  "deployedLinkReferences": {}
}