{
  "_format": "hh-sol-artifact-1",
  "contractName": "StateManager",
  "sourceName": "contracts/StateManager.sol",
  "abi": [
    {
      "inputs": [
        {
          "internalType": "address",
          "name": "initialAdmin",
          "type": "address"
        }
      ],
      "stateMutability": "nonpayable",
      "type": "constructor"
    },
    {
      "inputs": [],
      "name": "AccessControlBadConfirmation",
      "type": "error"
    },
    {
      "inputs": [
        {
          "internalType": "address",
          "name": "account",
          "type": "address"
        },
        {
          "internalType": "bytes32",
          "name": "neededRole",
          "type": "bytes32"
        }
      ],
      "name": "AccessControlUnauthorizedAccount",
      "type": "error"
    },
    {
      "inputs": [
        {
          "internalType": "string",
          "name": "id",
          "type": "string"
        },
        {
          "internalType": "enum StateManager.ValueType",
          "name": "expected",
          "type": "uint8"
        },
        {
          "internalType": "enum StateManager.ValueType",
          "name": "actual",
          "type": "uint8"
        }
      ],
      "name": "InvalidValueType",
      "type": "error"
    },
    {
      "inputs": [],
      "name": "NotAuthorized",
      "type": "error"
    },
    {
      "anonymous": false,
      "inputs": [
        {
          "indexed": true,
          "internalType": "string",
          "name": "id",
          "type": "string"
        },
        {
          "indexed": false,
          "internalType": "bytes32",
          "name": "requiredRole",
          "type": "bytes32"
        },
        {
          "indexed": true,
          "internalType": "address",
          "name": "actor",
          "type": "address"
        }
      ],
      "name": "ConfigCleared",
      "type": "event"
    },
    {
      "anonymous": false,
      "inputs": [
        {
          "indexed": true,
          "internalType": "string",
          "name": "id",
          "type": "string"
        },
        {
          "indexed": true,
          "internalType": "enum StateManager.ValueType",
          "name": "valueType",
          "type": "uint8"
        },
        {
          "indexed": false,
          "internalType": "bytes32",
          "name": "previousData",
          "type": "bytes32"
        },
        {
          "indexed": false,
          "internalType": "bytes32",
          "name": "newData",
          "type": "bytes32"
        },
        {
          "indexed": false,
          "internalType": "bytes32",
          "name": "requiredRole",
          "type": "bytes32"
        },
        {
          "indexed": true,
          "internalType": "address",
          "name": "actor",
          "type": "address"
        }
      ],
      "name": "ConfigUpdated",
      "type": "event"
    },
    {
      "anonymous": false,
      "inputs": [
        {
          "indexed": true,
          "internalType": "address",
          "name": "target",
          "type": "address"
        },
        {
          "indexed": true,
          "internalType": "bytes32",
          "name": "operation",
          "type": "bytes32"
        },
        {
          "indexed": false,
          "internalType": "address",
          "name": "module",
          "type": "address"
        },
        {
          "indexed": true,
          "internalType": "address",
          "name": "actor",
          "type": "address"
        }
      ],
      "name": "GovernanceModuleOperationUpdated",
      "type": "event"
    },
    {
      "anonymous": false,
      "inputs": [
        {
          "indexed": true,
          "internalType": "address",
          "name": "target",
          "type": "address"
        },
        {
          "indexed": false,
          "internalType": "address",
          "name": "module",
          "type": "address"
        },
        {
          "indexed": true,
          "internalType": "address",
          "name": "actor",
          "type": "address"
        }
      ],
      "name": "GovernanceModuleUpdated",
      "type": "event"
    },
    {
      "anonymous": false,
      "inputs": [
        {
          "indexed": true,
          "internalType": "address",
          "name": "target",
          "type": "address"
        },
        {
          "indexed": true,
          "internalType": "bytes32",
          "name": "operation",
          "type": "bytes32"
        },
        {
          "indexed": false,
          "internalType": "bool",
          "name": "isStatic",
          "type": "bool"
        },
        {
          "indexed": true,
          "internalType": "address",
          "name": "actor",
          "type": "address"
        }
      ],
      "name": "GovernanceStaticOperationUpdated",
      "type": "event"
    },
    {
      "anonymous": false,
      "inputs": [
        {
          "indexed": true,
          "internalType": "address",
          "name": "target",
          "type": "address"
        },
        {
          "indexed": false,
          "internalType": "bool",
          "name": "isStatic",
          "type": "bool"
        },
        {
          "indexed": true,
          "internalType": "address",
          "name": "actor",
          "type": "address"
        }
      ],
      "name": "GovernanceStaticUpdated",
      "type": "event"
    },
    {
      "anonymous": false,
      "inputs": [
        {
          "indexed": true,
          "internalType": "string",
          "name": "id",
          "type": "string"
        },
        {
          "indexed": true,
          "internalType": "address",
          "name": "account",
          "type": "address"
        },
        {
          "indexed": false,
          "internalType": "bool",
          "name": "allowed",
          "type": "bool"
        },
        {
          "indexed": true,
          "internalType": "address",
          "name": "actor",
          "type": "address"
        }
      ],
      "name": "IdWriterUpdated",
      "type": "event"
    },
    {
      "anonymous": false,
      "inputs": [
        {
          "indexed": true,
          "internalType": "bytes32",
          "name": "role",
          "type": "bytes32"
        },
        {
          "indexed": true,
          "internalType": "bytes32",
          "name": "previousAdminRole",
          "type": "bytes32"
        },
        {
          "indexed": true,
          "internalType": "bytes32",
          "name": "newAdminRole",
          "type": "bytes32"
        }
      ],
      "name": "RoleAdminChanged",
      "type": "event"
    },
    {
      "anonymous": false,
      "inputs": [
        {
          "indexed": true,
          "internalType": "bytes32",
          "name": "role",
          "type": "bytes32"
        },
        {
          "indexed": true,
          "internalType": "address",
          "name": "account",
          "type": "address"
        },
        {
          "indexed": true,
          "internalType": "address",
          "name": "sender",
          "type": "address"
        }
      ],
      "name": "RoleGranted",
      "type": "event"
    },
    {
      "anonymous": false,
      "inputs": [
        {
          "indexed": true,
          "internalType": "bytes32",
          "name": "role",
          "type": "bytes32"
        },
        {
          "indexed": true,
          "internalType": "address",
          "name": "account",
          "type": "address"
        },
        {
          "indexed": true,
          "internalType": "address",
          "name": "sender",
          "type": "address"
        }
      ],
      "name": "RoleRevoked",
      "type": "event"
    },
    {
      "inputs": [],
      "name": "DEFAULT_ADMIN_ROLE",
      "outputs": [
        {
          "internalType": "bytes32",
          "name": "",
          "type": "bytes32"
        }
      ],
      "stateMutability": "view",
      "type": "function"
    },
    {
      "inputs": [
        {
          "internalType": "string",
          "name": "id",
          "type": "string"
        }
      ],
      "name": "addressOf",
      "outputs": [
        {
          "internalType": "address",
          "name": "",
          "type": "address"
        }
      ],
      "stateMutability": "view",
      "type": "function"
    },
    {
      "inputs": [
        {
          "internalType": "address",
          "name": "stateManagerAddress",
          "type": "address"
        },
        {
          "internalType": "bytes32",
          "name": "operation",
          "type": "bytes32"
        },
        {
          "internalType": "bytes",
          "name": "context",
          "type": "bytes"
        }
      ],
      "name": "applyGovernanceModule",
      "outputs": [
        {
          "internalType": "bytes",
          "name": "",
          "type": "bytes"
        }
      ],
      "stateMutability": "nonpayable",
      "type": "function"
    },
    {
      "inputs": [
        {
          "internalType": "string",
          "name": "id",
          "type": "string"
        }
      ],
      "name": "clear",
      "outputs": [],
      "stateMutability": "nonpayable",
      "type": "function"
    },
    {
      "inputs": [
        {
          "internalType": "string",
          "name": "id",
          "type": "string"
        }
      ],
      "name": "getBool",
      "outputs": [
        {
          "internalType": "bool",
          "name": "",
          "type": "bool"
        }
      ],
      "stateMutability": "view",
      "type": "function"
    },
    {
      "inputs": [
        {
          "internalType": "string",
          "name": "id",
          "type": "string"
        }
      ],
      "name": "getBytes32",
      "outputs": [
        {
          "internalType": "bytes32",
          "name": "",
          "type": "bytes32"
        }
      ],
      "stateMutability": "view",
      "type": "function"
    },
    {
      "inputs": [
        {
          "internalType": "address",
          "name": "target",
          "type": "address"
        }
      ],
      "name": "getGovernanceModule",
      "outputs": [
        {
          "internalType": "address",
          "name": "",
          "type": "address"
        }
      ],
      "stateMutability": "view",
      "type": "function"
    },
    {
      "inputs": [
        {
          "internalType": "address",
          "name": "target",
          "type": "address"
        },
        {
          "internalType": "bytes32",
          "name": "operation",
          "type": "bytes32"
        }
      ],
      "name": "getGovernanceModuleForOperation",
      "outputs": [
        {
          "internalType": "address",
          "name": "",
          "type": "address"
        }
      ],
      "stateMutability": "view",
      "type": "function"
    },
    {
      "inputs": [
        {
          "internalType": "string",
          "name": "id",
          "type": "string"
        }
      ],
      "name": "getMetadata",
      "outputs": [
        {
          "internalType": "enum StateManager.ValueType",
          "name": "valueType",
          "type": "uint8"
        },
        {
          "internalType": "bytes32",
          "name": "requiredRole",
          "type": "bytes32"
        }
      ],
      "stateMutability": "view",
      "type": "function"
    },
    {
      "inputs": [
        {
          "internalType": "bytes32",
          "name": "role",
          "type": "bytes32"
        }
      ],
      "name": "getRoleAdmin",
      "outputs": [
        {
          "internalType": "bytes32",
          "name": "",
          "type": "bytes32"
        }
      ],
      "stateMutability": "view",
      "type": "function"
    },
    {
      "inputs": [
        {
          "internalType": "string",
          "name": "id",
          "type": "string"
        }
      ],
      "name": "getUint",
      "outputs": [
        {
          "internalType": "uint256",
          "name": "",
          "type": "uint256"
        }
      ],
      "stateMutability": "view",
      "type": "function"
    },
    {
      "inputs": [
        {
          "internalType": "bytes32",
          "name": "role",
          "type": "bytes32"
        },
        {
          "internalType": "address",
          "name": "account",
          "type": "address"
        }
      ],
      "name": "grantRole",
      "outputs": [],
      "stateMutability": "nonpayable",
      "type": "function"
    },
    {
      "inputs": [
        {
          "internalType": "string",
          "name": "id",
          "type": "string"
        }
      ],
      "name": "has",
      "outputs": [
        {
          "internalType": "bool",
          "name": "",
          "type": "bool"
        }
      ],
      "stateMutability": "view",
      "type": "function"
    },
    {
      "inputs": [
        {
          "internalType": "bytes32",
          "name": "role",
          "type": "bytes32"
        },
        {
          "internalType": "address",
          "name": "account",
          "type": "address"
        }
      ],
      "name": "hasRole",
      "outputs": [
        {
          "internalType": "bool",
          "name": "",
          "type": "bool"
        }
      ],
      "stateMutability": "view",
      "type": "function"
    },
    {
      "inputs": [
        {
          "internalType": "string",
          "name": "id",
          "type": "string"
        },
        {
          "internalType": "address",
          "name": "account",
          "type": "address"
        }
      ],
      "name": "isIdWriter",
      "outputs": [
        {
          "internalType": "bool",
          "name": "",
          "type": "bool"
        }
      ],
      "stateMutability": "view",
      "type": "function"
    },
    {
      "inputs": [
        {
          "internalType": "bytes32",
          "name": "role",
          "type": "bytes32"
        },
        {
          "internalType": "address",
          "name": "callerConfirmation",
          "type": "address"
        }
      ],
      "name": "renounceRole",
      "outputs": [],
      "stateMutability": "nonpayable",
      "type": "function"
    },
    {
      "inputs": [
        {
          "internalType": "bytes32",
          "name": "role",
          "type": "bytes32"
        },
        {
          "internalType": "address",
          "name": "account",
          "type": "address"
        }
      ],
      "name": "revokeRole",
      "outputs": [],
      "stateMutability": "nonpayable",
      "type": "function"
    },
    {
      "inputs": [
        {
          "internalType": "string",
          "name": "id",
          "type": "string"
        },
        {
          "internalType": "address",
          "name": "value",
          "type": "address"
        },
        {
          "internalType": "bytes32",
          "name": "requiredRole",
          "type": "bytes32"
        }
      ],
      "name": "setAddress",
      "outputs": [],
      "stateMutability": "nonpayable",
      "type": "function"
    },
    {
      "inputs": [
        {
          "internalType": "string",
          "name": "id",
          "type": "string"
        },
        {
          "internalType": "bool",
          "name": "value",
          "type": "bool"
        },
        {
          "internalType": "bytes32",
          "name": "requiredRole",
          "type": "bytes32"
        }
      ],
      "name": "setBool",
      "outputs": [],
      "stateMutability": "nonpayable",
      "type": "function"
    },
    {
      "inputs": [
        {
          "internalType": "string",
          "name": "id",
          "type": "string"
        },
        {
          "internalType": "bytes32",
          "name": "value",
          "type": "bytes32"
        },
        {
          "internalType": "bytes32",
          "name": "requiredRole",
          "type": "bytes32"
        }
      ],
      "name": "setBytes32",
      "outputs": [],
      "stateMutability": "nonpayable",
      "type": "function"
    },
    {
      "inputs": [
        {
          "internalType": "address",
          "name": "target",
          "type": "address"
        },
        {
          "internalType": "address",
          "name": "module",
          "type": "address"
        }
      ],
      "name": "setGovernanceModule",
      "outputs": [],
      "stateMutability": "nonpayable",
      "type": "function"
    },
    {
      "inputs": [
        {
          "internalType": "address",
          "name": "target",
          "type": "address"
        },
        {
          "internalType": "bytes32",
          "name": "operation",
          "type": "bytes32"
        },
        {
          "internalType": "address",
          "name": "module",
          "type": "address"
        }
      ],
      "name": "setGovernanceModuleForOperation",
      "outputs": [],
      "stateMutability": "nonpayable",
      "type": "function"
    },
    {
      "inputs": [
        {
          "internalType": "address",
          "name": "target",
          "type": "address"
        },
        {
          "internalType": "bool",
          "name": "isStatic",
          "type": "bool"
        }
      ],
      "name": "setGovernanceStatic",
      "outputs": [],
      "stateMutability": "nonpayable",
      "type": "function"
    },
    {
      "inputs": [
        {
          "internalType": "address",
          "name": "target",
          "type": "address"
        },
        {
          "internalType": "bytes32",
          "name": "operation",
          "type": "bytes32"
        },
        {
          "internalType": "bool",
          "name": "isStatic",
          "type": "bool"
        }
      ],
      "name": "setGovernanceStaticForOperation",
      "outputs": [],
      "stateMutability": "nonpayable",
      "type": "function"
    },
    {
      "inputs": [
        {
          "internalType": "string",
          "name": "id",
          "type": "string"
        },
        {
          "internalType": "address",
          "name": "account",
          "type": "address"
        },
        {
          "internalType": "bool",
          "name": "allowed",
          "type": "bool"
        }
      ],
      "name": "setIdWriter",
      "outputs": [],
      "stateMutability": "nonpayable",
      "type": "function"
    },
    {
      "inputs": [
        {
          "internalType": "string",
          "name": "id",
          "type": "string"
        },
        {
          "internalType": "uint256",
          "name": "value",
          "type": "uint256"
        },
        {
          "internalType": "bytes32",
          "name": "requiredRole",
          "type": "bytes32"
        }
      ],
      "name": "setUint",
      "outputs": [],
      "stateMutability": "nonpayable",
      "type": "function"
    },
    {
      "inputs": [
        {
          "internalType": "bytes4",
          "name": "interfaceId",
          "type": "bytes4"
        }
      ],
      "name": "supportsInterface",
      "outputs": [
        {
          "internalType": "bool",
          "name": "",
          "type": "bool"
        }
      ],
      "stateMutability": "view",
      "type": "function"
    }
  ],
  "bytecode": "0x60806040523480156200001157600080fd5b5060405162001ffc38038062001ffc833981016040819052620000349162000120565b6001600160a01b0381166200005c5760405163ea8e4eb560e01b815260040160405180910390fd5b6200006960008262000071565b505062000152565b6000828152602081815260408083206001600160a01b038516845290915281205460ff1662000116576000838152602081815260408083206001600160a01b03861684529091529020805460ff19166001179055620000cd3390565b6001600160a01b0316826001600160a01b0316847f2f8788117e7eff1d82e926ec794901d17c78024a50270940304540a733656f0d60405160405180910390a45060016200011a565b5060005b92915050565b6000602082840312156200013357600080fd5b81516001600160a01b03811681146200014b57600080fd5b9392505050565b611e9a80620001626000396000f3fe608060405234801561001057600080fd5b50600436106101a95760003560e01c80634b2a27d9116100f9578063a8e5229411610097578063ccf1454a11610071578063ccf1454a146103cb578063d07ae448146103de578063d11a1f07146103f1578063d547741f1461041257600080fd5b8063a8e5229414610392578063b1a66631146103a5578063b3a4b7ea146103b857600080fd5b80637b798c84116100d35780637b798c841461035157806391d14854146103645780639535ce1214610377578063a217fddf1461038a57600080fd5b80634b2a27d91461030b5780634cd59bb61461031e5780634f9e5d721461033157600080fd5b806327314f79116101665780633350bcba116101405780633350bcba146102bf57806336568abe146102d2578063366e04e0146102e5578063498bff00146102f857600080fd5b806327314f79146102865780632f2ff15d14610299578063333d5e4e146102ac57600080fd5b806301ffc9a7146101ae5780630462a4be146101d657806307948006146101eb5780631050d3a21461022f57806316cf503e14610242578063248a9ca314610255575b600080fd5b6101c16101bc3660046117ff565b610425565b60405190151581526020015b60405180910390f35b6101e96101e4366004611845565b61045c565b005b6102176101f9366004611881565b6001600160a01b039081166000908152600360205260409020541690565b6040516001600160a01b0390911681526020016101cd565b6101e961023d366004611979565b610527565b6101e96102503660046119ce565b610812565b610278610263366004611a0b565b60009081526020819052604090206001015490565b6040519081526020016101cd565b6102786102943660046119ce565b61094e565b6101e96102a7366004611a24565b6109ff565b6101e96102ba366004611a50565b610a2a565b6101e96102cd366004611a7a565b610ae0565b6101e96102e0366004611a24565b610b89565b6101e96102f3366004611aa4565b610bbc565b6102786103063660046119ce565b610bef565b6101e9610319366004611af2565b610c96565b6101e961032c366004611b49565b610cc9565b61034461033f366004611b7c565b610d7d565b6040516101cd9190611c37565b6101e961035f366004611aa4565b610f76565b6101c1610372366004611a24565b610fa9565b6101c16103853660046119ce565b610fd2565b610278600081565b6101c16103a03660046119ce565b611086565b6101c16103b3366004611c4a565b6110c5565b6102176103c6366004611c8f565b611109565b6102176103d93660046119ce565b61115f565b6101e96103ec366004611cb9565b611207565b6104046103ff3660046119ce565b61123a565b6040516101cd929190611d38565b6101e9610420366004611a24565b611275565b60006001600160e01b03198216637965db0b60e01b148061045657506301ffc9a760e01b6001600160e01b03198316145b92915050565b610467600033610fa9565b6104845760405163ea8e4eb560e01b815260040160405180910390fd5b6001600160a01b0383166104b35760405162461bcd60e51b81526004016104aa90611d53565b60405180910390fd5b6001600160a01b03838116600081815260046020908152604080832087845282529182902080546001600160a01b0319169486169485179055905192835233928592917fb2ba44c9a40c039712510679fbce9010056a044250d1daae7b41f41c77186fa091015b60405180910390a4505050565b6002836040516105379190611d7b565b90815260408051602092819003830190206000808052925290205460ff166106df57610564600033610fa9565b6105815760405163ea8e4eb560e01b815260040160405180910390fd5b806105ce5760405162461bcd60e51b815260206004820152601760248201527f666972737420777269746572206d75737420616c6c6f7700000000000000000060448201526064016104aa565b6001600160a01b0382166106155760405162461bcd60e51b815260206004820152600e60248201526d34b73b30b634b2103bb934ba32b960911b60448201526064016104aa565b60016002846040516106279190611d7b565b9081526040805160209281900383018120600080805293529120805460ff191692151592909217909155600190600290610662908690611d7b565b90815260408051602092819003830181206001600160a01b03871660008181529190945291909120805460ff19169315159390931790925533916106a7908690611d7b565b60405190819003812060018252907fc68f9d893d28f7942396509bf7371fa9031acc4e9456d1231fa329498b0328fc9060200161051a565b6001600160a01b0382166107215760405162461bcd60e51b81526020600482015260096024820152683d32b9379030b2323960b91b60448201526064016104aa565b61072c600033610fa9565b15801561076557506002836040516107449190611d7b565b9081526040805160209281900383019020336000908152925290205460ff16155b156107835760405163ea8e4eb560e01b815260040160405180910390fd5b806002846040516107949190611d7b565b90815260408051602092819003830181206001600160a01b03871660008181529190945291909120805460ff19169315159390931790925533916107d9908690611d7b565b6040519081900381208415158252907fc68f9d893d28f7942396509bf7371fa9031acc4e9456d1231fa329498b0328fc9060200161051a565b8061081d813361129a565b61083a5760405163ea8e4eb560e01b815260040160405180910390fd5b600060018360405161084c9190611d7b565b90815260408051918290036020018220606083019091528054829060ff16600481111561087b5761087b611d00565b600481111561088c5761088c611d00565b81526001820154602082015260029091015460409091015290506000815160048111156108bb576108bb611d00565b14610949576001836040516108d09190611d7b565b908152604051908190036020018120805460ff191681556000600182018190556002909101553390610903908590611d7b565b60405180910390207f5aaa53b01d422a63677f5968bc8a5a79a10b61269d06e3db958968a13c389e5b836040015160405161094091815260200190565b60405180910390a35b505050565b6000806001836040516109619190611d7b565b90815260408051918290036020018220606083019091528054829060ff16600481111561099057610990611d00565b60048111156109a1576109a1611d00565b81526001820154602082015260029091015460409091015290506004815160048111156109d0576109d0611d00565b146109f5578051604051636b7e78f360e11b81526104aa918591600491908201611d97565b6020015192915050565b600082815260208190526040902060010154610a1a8161134c565b610a248383611359565b50505050565b610a35600033610fa9565b610a525760405163ea8e4eb560e01b815260040160405180910390fd5b6001600160a01b038216610a785760405162461bcd60e51b81526004016104aa90611d53565b6001600160a01b0382811660008181526003602090815260409182902080546001600160a01b0319169486169485179055905192835233927fc63aa1913e62688f1a7b2824cb588412191f1421cf59e0a1b1e194950b948e4b91015b60405180910390a35050565b610aeb600033610fa9565b610b085760405163ea8e4eb560e01b815260040160405180910390fd5b6001600160a01b038216610b2e5760405162461bcd60e51b81526004016104aa90611d53565b6001600160a01b038216600081815260056020908152604091829020805460ff191685151590811790915591519182523392917f6a7046707ea448294209c83de9590e37f893ff0eece6af4b6f13a4d0766323a79101610ad4565b6001600160a01b0381163314610bb25760405163334bd91960e11b815260040160405180910390fd5b61094982826113eb565b82610bc7813361129a565b610be45760405163ea8e4eb560e01b815260040160405180910390fd5b610a24848484611456565b600080600183604051610c029190611d7b565b90815260408051918290036020018220606083019091528054829060ff166004811115610c3157610c31611d00565b6004811115610c4257610c42611d00565b81526001820154602082015260029182015460409091015290915081516004811115610c7057610c70611d00565b146109f5578051604051636b7e78f360e11b81526104aa91859160029190600401611d97565b82610ca1813361129a565b610cbe5760405163ea8e4eb560e01b815260040160405180910390fd5b610a24848484611463565b610cd4600033610fa9565b610cf15760405163ea8e4eb560e01b815260040160405180910390fd5b6001600160a01b038316610d175760405162461bcd60e51b81526004016104aa90611d53565b6001600160a01b0383166000818152600660209081526040808320868452825291829020805460ff191685151590811790915591519182523392859290917fe11f3ac3242c46ad309aeb1e8ac5b8f37d1048d6b2b1ec5065e85bc7ffe5633f910161051a565b3360009081526004602090815260408083208584529091529020546060906001600160a01b031680610dc45750336000908152600360205260409020546001600160a01b03165b6001600160a01b038116610de8575050604080516020810190915260008152610f6f565b33600090815260066020908152604080832087845290915290205460ff1680610e2057503360009081526005602052604090205460ff165b8015610ef357600063b32d8e7560e01b878787604051602401610e4593929190611dc6565b604051602081830303815290604052906001600160e01b0319166020820180516001600160e01b0383818316178352505050509050600080846001600160a01b031683604051610e959190611d7b565b600060405180830381855afa9150503d8060008114610ed0576040519150601f19603f3d011682016040523d82523d6000602084013e610ed5565b606091505b509150915081610ee757805160208201fd5b9450610f6f9350505050565b60405163b32d8e7560e01b81526001600160a01b0383169063b32d8e7590610f2390899089908990600401611dc6565b6000604051808303816000875af1158015610f42573d6000803e3d6000fd5b505050506040513d6000823e601f3d908101601f19168201604052610f6a9190810190611df6565b925050505b9392505050565b82610f81813361129a565b610f9e5760405163ea8e4eb560e01b815260040160405180910390fd5b610a24848484611479565b6000918252602082815260408084206001600160a01b0393909316845291905290205460ff1690565b600080600183604051610fe59190611d7b565b90815260408051918290036020018220606083019091528054829060ff16600481111561101457611014611d00565b600481111561102557611025611d00565b815260018201546020820152600290910154604090910152905060038151600481111561105457611054611d00565b1461107a578051604051636b7e78f360e11b81526104aa91859160039190600401611d97565b60200151151592915050565b6000806001836040516110999190611d7b565b9081526040519081900360200190205460ff1660048111156110bd576110bd611d00565b141592915050565b60006002836040516110d79190611d7b565b908152604080519182900360209081019092206001600160a01b0385166000908152925290205460ff16905092915050565b6001600160a01b038083166000908152600460209081526040808320858452909152812054909116801561113e579050610456565b5050506001600160a01b039081166000908152600360205260409020541690565b6000806001836040516111729190611d7b565b90815260408051918290036020018220606083019091528054829060ff1660048111156111a1576111a1611d00565b60048111156111b2576111b2611d00565b81526001828101546020830152600290920154604090910152909150815160048111156111e1576111e1611d00565b146109f5578051604051636b7e78f360e11b81526104aa91859160019190600401611d97565b82611212813361129a565b61122f5760405163ea8e4eb560e01b815260040160405180910390fd5b610a24848484611486565b600080600060018460405161124f9190611d7b565b908152604051908190036020019020805460029091015460ff9091169590945092505050565b6000828152602081905260409020600101546112908161134c565b610a2483836113eb565b60006112a68183610fa9565b156112b357506001610456565b6002836040516112c39190611d7b565b90815260408051602092819003830190206001600160a01b0385166000908152925290205460ff16156112f857506001610456565b600060018460405161130a9190611d7b565b908152604051908190036020019020600201549050801580159061133357506113338184610fa9565b15611342576001915050610456565b5060009392505050565b61135681336114a1565b50565b60006113658383610fa9565b6113e3576000838152602081815260408083206001600160a01b03861684529091529020805460ff1916600117905561139b3390565b6001600160a01b0316826001600160a01b0316847f2f8788117e7eff1d82e926ec794901d17c78024a50270940304540a733656f0d60405160405180910390a4506001610456565b506000610456565b60006113f78383610fa9565b156113e3576000838152602081815260408083206001600160a01b0386168085529252808320805460ff1916905551339286917ff6391f5c32d9c69d2a47ea670b442974b53935d1edc7fd64eb21e047a839171b9190a4506001610456565b61094983600284846114de565b6109498360016001600160a01b038516846114de565b61094983600484846114de565b6109498360038461149857600061149b565b60015b846114de565b6114ab8282610fa9565b6114da5760405163e2517d3f60e01b81526001600160a01b0382166004820152602481018390526044016104aa565b5050565b60006001856040516114f09190611d7b565b90815260408051918290036020018220606083019091528054829060ff16600481111561151f5761151f611d00565b600481111561153057611530611d00565b81526001820154602082015260029091015460409091015290506000808251600481111561156057611560611d00565b14905080158161159357507f933da6496af1fb82c3e448cb4e10dc2067e9598edbaf298231b91509184e40378260400151145b156115d25760405162461bcd60e51b815260206004820152600f60248201526e494420697320696d6d757461626c6560881b60448201526064016104aa565b60405180606001604052808660048111156115ef576115ef611d00565b81526020018581526020018481525060018760405161160e9190611d7b565b90815260405190819003602001902081518154829060ff1916600183600481111561163b5761163b611d00565b02179055506020820151600182015560409091015160029091015580801561168e575060028660405161166e9190611d7b565b90815260408051602092819003830190206000808052925290205460ff16155b1561178b5760016002876040516116a59190611d7b565b9081526040805160209281900383018120600080805293529120805460ff1916921515929092179091556002906116dd908890611d7b565b9081526040805160209281900383019020336000908152925290205460ff1661178b5760016002876040516117129190611d7b565b90815260408051602092819003830181203360008181529190945291909120805460ff19169315159390931790925590819061174f908990611d7b565b60405190819003812060018252907fc68f9d893d28f7942396509bf7371fa9031acc4e9456d1231fa329498b0328fc9060200160405180910390a45b3385600481111561179e5761179e611d00565b876040516117ac9190611d7b565b6040805191829003822060208088015184528301899052908201879052907f78b635d7725d3c8b3efb6189e2838417156a3a67712d38aa9a7ad4b5afeefce69060600160405180910390a4505050505050565b60006020828403121561181157600080fd5b81356001600160e01b031981168114610f6f57600080fd5b80356001600160a01b038116811461184057600080fd5b919050565b60008060006060848603121561185a57600080fd5b61186384611829565b92506020840135915061187860408501611829565b90509250925092565b60006020828403121561189357600080fd5b610f6f82611829565b634e487b7160e01b600052604160045260246000fd5b604051601f8201601f1916810167ffffffffffffffff811182821017156118db576118db61189c565b604052919050565b600067ffffffffffffffff8211156118fd576118fd61189c565b50601f01601f191660200190565b600061191e611919846118e3565b6118b2565b905082815283838301111561193257600080fd5b828260208301376000602084830101529392505050565b600082601f83011261195a57600080fd5b610f6f8383356020850161190b565b8035801515811461184057600080fd5b60008060006060848603121561198e57600080fd5b833567ffffffffffffffff8111156119a557600080fd5b6119b186828701611949565b9350506119c060208501611829565b915061187860408501611969565b6000602082840312156119e057600080fd5b813567ffffffffffffffff8111156119f757600080fd5b611a0384828501611949565b949350505050565b600060208284031215611a1d57600080fd5b5035919050565b60008060408385031215611a3757600080fd5b82359150611a4760208401611829565b90509250929050565b60008060408385031215611a6357600080fd5b611a6c83611829565b9150611a4760208401611829565b60008060408385031215611a8d57600080fd5b611a9683611829565b9150611a4760208401611969565b600080600060608486031215611ab957600080fd5b833567ffffffffffffffff811115611ad057600080fd5b611adc86828701611949565b9660208601359650604090950135949350505050565b600080600060608486031215611b0757600080fd5b833567ffffffffffffffff811115611b1e57600080fd5b611b2a86828701611949565b935050611b3960208501611829565b9150604084013590509250925092565b600080600060608486031215611b5e57600080fd5b611b6784611829565b92506020840135915061187860408501611969565b600080600060608486031215611b9157600080fd5b611b9a84611829565b925060208401359150604084013567ffffffffffffffff811115611bbd57600080fd5b8401601f81018613611bce57600080fd5b611bdd8682356020840161190b565b9150509250925092565b60005b83811015611c02578181015183820152602001611bea565b50506000910152565b60008151808452611c23816020860160208601611be7565b601f01601f19169290920160200192915050565b602081526000610f6f6020830184611c0b565b60008060408385031215611c5d57600080fd5b823567ffffffffffffffff811115611c7457600080fd5b611c8085828601611949565b925050611a4760208401611829565b60008060408385031215611ca257600080fd5b611cab83611829565b946020939093013593505050565b600080600060608486031215611cce57600080fd5b833567ffffffffffffffff811115611ce557600080fd5b611cf186828701611949565b935050611b3960208501611969565b634e487b7160e01b600052602160045260246000fd5b60058110611d3457634e487b7160e01b600052602160045260246000fd5b9052565b60408101611d468285611d16565b8260208301529392505050565b6020808252600e908201526d1a5b9d985b1a59081d185c99d95d60921b604082015260600190565b60008251611d8d818460208701611be7565b9190910192915050565b606081526000611daa6060830186611c0b565b9050611db96020830185611d16565b611a036040830184611d16565b60018060a01b0384168152826020820152606060408201526000611ded6060830184611c0b565b95945050505050565b600060208284031215611e0857600080fd5b815167ffffffffffffffff811115611e1f57600080fd5b8201601f81018413611e3057600080fd5b8051611e3e611919826118e3565b818152856020838501011115611e5357600080fd5b611ded826020830160208601611be756fea2646970667358221220956b4668a5ed8ae7511fb3d0e899432e92e5968444e7d788f1683b5601c5a63264736f6c63430008180033",
  "linkReferences": {},
  "deployedLinkReferences": {}
}