{
  "_format": "hh-sol-artifact-1",
  "contractName": "Swap",
  "sourceName": "contracts/Swap.sol",
  "abi": [
    {
      "inputs": [
        {
          "internalType": "address",
          "name": "stateManagerAddress",
          "type": "address"
        }
      ],
      "stateMutability": "nonpayable",
      "type": "constructor"
    },
    {
      "inputs": [],
      "name": "AccessControlBadConfirmation",
      "type": "error"
    },
    {
      "inputs": [
        {
          "internalType": "address",
          "name": "account",
          "type": "address"
        },
        {
          "internalType": "bytes32",
          "name": "neededRole",
          "type": "bytes32"
        }
      ],
      "name": "AccessControlUnauthorizedAccount",
      "type": "error"
    },
    {
      "inputs": [],
      "name": "EnforcedPause",
      "type": "error"
    },
    {
      "inputs": [],
      "name": "ExpectedPause",
      "type": "error"
    },
    {
      "inputs": [],
      "name": "FeeOutOfRange",
      "type": "error"
    },
    {
      "inputs": [],
      "name": "InsufficientLiquidity",
      "type": "error"
    },
    {
      "inputs": [],
      "name": "InvalidAmount",
      "type": "error"
    },
    {
      "inputs": [],
      "name": "InvalidMainContract",
      "type": "error"
    },
    {
      "inputs": [],
      "name": "InvalidStateManager",
      "type": "error"
    },
    {
      "inputs": [],
      "name": "PairHasLiquidity",
      "type": "error"
    },
    {
      "inputs": [],
      "name": "RatioMismatch",
      "type": "error"
    },
    {
      "inputs": [],
      "name": "ReentrancyGuardReentrantCall",
      "type": "error"
    },
    {
      "inputs": [
        {
          "internalType": "address",
          "name": "token",
          "type": "address"
        }
      ],
      "name": "SafeERC20FailedOperation",
      "type": "error"
    },
    {
      "inputs": [],
      "name": "SlippageExceeded",
      "type": "error"
    },
    {
      "inputs": [],
      "name": "StateManagerUnchanged",
      "type": "error"
    },
    {
      "inputs": [],
      "name": "StateManagerWriterMissing",
      "type": "error"
    },
    {
      "inputs": [],
      "name": "TreasuryOrQuoteMissing",
      "type": "error"
    },
    {
      "inputs": [],
      "name": "UnknownPair",
      "type": "error"
    },
    {
      "anonymous": false,
      "inputs": [],
      "name": "GovernanceDisabled",
      "type": "event"
    },
    {
      "anonymous": false,
      "inputs": [],
      "name": "GovernanceEnabled",
      "type": "event"
    },
    {
      "anonymous": false,
      "inputs": [
        {
          "indexed": true,
          "internalType": "address",
          "name": "quoteToken",
          "type": "address"
        },
        {
          "indexed": true,
          "internalType": "address",
          "name": "provider",
          "type": "address"
        },
        {
          "indexed": false,
          "internalType": "uint256",
          "name": "qerAmount",
          "type": "uint256"
        },
        {
          "indexed": false,
          "internalType": "uint256",
          "name": "quoteAmount",
          "type": "uint256"
        },
        {
          "indexed": false,
          "internalType": "uint256",
          "name": "sharesMinted",
          "type": "uint256"
        }
      ],
      "name": "LiquidityAdded",
      "type": "event"
    },
    {
      "anonymous": false,
      "inputs": [
        {
          "indexed": true,
          "internalType": "address",
          "name": "quoteToken",
          "type": "address"
        },
        {
          "indexed": true,
          "internalType": "address",
          "name": "provider",
          "type": "address"
        },
        {
          "indexed": false,
          "internalType": "uint256",
          "name": "qerAmount",
          "type": "uint256"
        },
        {
          "indexed": false,
          "internalType": "uint256",
          "name": "quoteAmount",
          "type": "uint256"
        },
        {
          "indexed": false,
          "internalType": "uint256",
          "name": "sharesBurned",
          "type": "uint256"
        }
      ],
      "name": "LiquidityRemoved",
      "type": "event"
    },
    {
      "anonymous": false,
      "inputs": [
        {
          "indexed": true,
          "internalType": "address",
          "name": "quoteToken",
          "type": "address"
        },
        {
          "indexed": false,
          "internalType": "uint256",
          "name": "feeBps",
          "type": "uint256"
        }
      ],
      "name": "PairFeeUpdated",
      "type": "event"
    },
    {
      "anonymous": false,
      "inputs": [
        {
          "indexed": false,
          "internalType": "address[]",
          "name": "tokens",
          "type": "address[]"
        }
      ],
      "name": "PairsUpdated",
      "type": "event"
    },
    {
      "anonymous": false,
      "inputs": [
        {
          "indexed": false,
          "internalType": "address",
          "name": "account",
          "type": "address"
        }
      ],
      "name": "Paused",
      "type": "event"
    },
    {
      "anonymous": false,
      "inputs": [
        {
          "indexed": true,
          "internalType": "address",
          "name": "quoteToken",
          "type": "address"
        },
        {
          "indexed": false,
          "internalType": "bool",
          "name": "qerToQuote",
          "type": "bool"
        },
        {
          "indexed": false,
          "internalType": "uint256",
          "name": "amountIn",
          "type": "uint256"
        },
        {
          "indexed": false,
          "internalType": "uint256",
          "name": "priceImpactBps",
          "type": "uint256"
        }
      ],
      "name": "PriceImpactMeasured",
      "type": "event"
    },
    {
      "anonymous": false,
      "inputs": [
        {
          "indexed": true,
          "internalType": "bytes32",
          "name": "role",
          "type": "bytes32"
        },
        {
          "indexed": true,
          "internalType": "bytes32",
          "name": "previousAdminRole",
          "type": "bytes32"
        },
        {
          "indexed": true,
          "internalType": "bytes32",
          "name": "newAdminRole",
          "type": "bytes32"
        }
      ],
      "name": "RoleAdminChanged",
      "type": "event"
    },
    {
      "anonymous": false,
      "inputs": [
        {
          "indexed": true,
          "internalType": "bytes32",
          "name": "role",
          "type": "bytes32"
        },
        {
          "indexed": true,
          "internalType": "address",
          "name": "account",
          "type": "address"
        },
        {
          "indexed": true,
          "internalType": "address",
          "name": "sender",
          "type": "address"
        }
      ],
      "name": "RoleGranted",
      "type": "event"
    },
    {
      "anonymous": false,
      "inputs": [
        {
          "indexed": true,
          "internalType": "bytes32",
          "name": "role",
          "type": "bytes32"
        },
        {
          "indexed": true,
          "internalType": "address",
          "name": "account",
          "type": "address"
        },
        {
          "indexed": true,
          "internalType": "address",
          "name": "sender",
          "type": "address"
        }
      ],
      "name": "RoleRevoked",
      "type": "event"
    },
    {
      "anonymous": false,
      "inputs": [
        {
          "indexed": true,
          "internalType": "address",
          "name": "previousManager",
          "type": "address"
        },
        {
          "indexed": true,
          "internalType": "address",
          "name": "newManager",
          "type": "address"
        }
      ],
      "name": "StateManagerUpdated",
      "type": "event"
    },
    {
      "anonymous": false,
      "inputs": [
        {
          "indexed": true,
          "internalType": "address",
          "name": "quoteToken",
          "type": "address"
        },
        {
          "indexed": true,
          "internalType": "address",
          "name": "trader",
          "type": "address"
        },
        {
          "indexed": false,
          "internalType": "bool",
          "name": "qerToQuote",
          "type": "bool"
        },
        {
          "indexed": false,
          "internalType": "uint256",
          "name": "amountIn",
          "type": "uint256"
        },
        {
          "indexed": false,
          "internalType": "uint256",
          "name": "amountOut",
          "type": "uint256"
        }
      ],
      "name": "Swapped",
      "type": "event"
    },
    {
      "anonymous": false,
      "inputs": [
        {
          "indexed": false,
          "internalType": "address",
          "name": "account",
          "type": "address"
        }
      ],
      "name": "Unpaused",
      "type": "event"
    },
    {
      "inputs": [],
      "name": "DEFAULT_ADMIN_ROLE",
      "outputs": [
        {
          "internalType": "bytes32",
          "name": "",
          "type": "bytes32"
        }
      ],
      "stateMutability": "view",
      "type": "function"
    },
    {
      "inputs": [],
      "name": "LIQUIDITY_ROLE",
      "outputs": [
        {
          "internalType": "bytes32",
          "name": "",
          "type": "bytes32"
        }
      ],
      "stateMutability": "view",
      "type": "function"
    },
    {
      "inputs": [],
      "name": "PAUSER_ROLE",
      "outputs": [
        {
          "internalType": "bytes32",
          "name": "",
          "type": "bytes32"
        }
      ],
      "stateMutability": "view",
      "type": "function"
    },
    {
      "inputs": [
        {
          "internalType": "address",
          "name": "quoteToken",
          "type": "address"
        },
        {
          "internalType": "uint256",
          "name": "qerAmount",
          "type": "uint256"
        },
        {
          "internalType": "uint256",
          "name": "quoteAmount",
          "type": "uint256"
        },
        {
          "internalType": "uint256",
          "name": "minShares",
          "type": "uint256"
        }
      ],
      "name": "addLiquidity",
      "outputs": [],
      "stateMutability": "nonpayable",
      "type": "function"
    },
    {
      "inputs": [
        {
          "internalType": "address",
          "name": "quoteToken",
          "type": "address"
        },
        {
          "internalType": "uint256",
          "name": "qerAmount",
          "type": "uint256"
        },
        {
          "internalType": "uint256",
          "name": "quoteAmount",
          "type": "uint256"
        },
        {
          "internalType": "uint256",
          "name": "minShares",
          "type": "uint256"
        },
        {
          "internalType": "bytes",
          "name": "context",
          "type": "bytes"
        }
      ],
      "name": "addLiquidityWithContext",
      "outputs": [],
      "stateMutability": "nonpayable",
      "type": "function"
    },
    {
      "inputs": [],
      "name": "allPairs",
      "outputs": [
        {
          "internalType": "address[]",
          "name": "",
          "type": "address[]"
        }
      ],
      "stateMutability": "view",
      "type": "function"
    },
    {
      "inputs": [],
      "name": "disableGovernance",
      "outputs": [],
      "stateMutability": "nonpayable",
      "type": "function"
    },
    {
      "inputs": [],
      "name": "enableGovernance",
      "outputs": [],
      "stateMutability": "nonpayable",
      "type": "function"
    },
    {
      "inputs": [],
      "name": "feeBps",
      "outputs": [
        {
          "internalType": "uint256",
          "name": "",
          "type": "uint256"
        }
      ],
      "stateMutability": "view",
      "type": "function"
    },
    {
      "inputs": [
        {
          "internalType": "address",
          "name": "quoteToken",
          "type": "address"
        }
      ],
      "name": "getPairFee",
      "outputs": [
        {
          "internalType": "uint256",
          "name": "feeOverride",
          "type": "uint256"
        }
      ],
      "stateMutability": "view",
      "type": "function"
    },
    {
      "inputs": [
        {
          "internalType": "address",
          "name": "quoteToken",
          "type": "address"
        }
      ],
      "name": "getReserves",
      "outputs": [
        {
          "internalType": "uint256",
          "name": "reserveQer",
          "type": "uint256"
        },
        {
          "internalType": "uint256",
          "name": "reserveQuote",
          "type": "uint256"
        }
      ],
      "stateMutability": "view",
      "type": "function"
    },
    {
      "inputs": [
        {
          "internalType": "bytes32",
          "name": "role",
          "type": "bytes32"
        }
      ],
      "name": "getRoleAdmin",
      "outputs": [
        {
          "internalType": "bytes32",
          "name": "",
          "type": "bytes32"
        }
      ],
      "stateMutability": "view",
      "type": "function"
    },
    {
      "inputs": [],
      "name": "governanceEnabled",
      "outputs": [
        {
          "internalType": "bool",
          "name": "",
          "type": "bool"
        }
      ],
      "stateMutability": "view",
      "type": "function"
    },
    {
      "inputs": [
        {
          "internalType": "bytes32",
          "name": "role",
          "type": "bytes32"
        },
        {
          "internalType": "address",
          "name": "account",
          "type": "address"
        }
      ],
      "name": "grantRole",
      "outputs": [],
      "stateMutability": "nonpayable",
      "type": "function"
    },
    {
      "inputs": [
        {
          "internalType": "bytes32",
          "name": "role",
          "type": "bytes32"
        },
        {
          "internalType": "address",
          "name": "account",
          "type": "address"
        }
      ],
      "name": "hasRole",
      "outputs": [
        {
          "internalType": "bool",
          "name": "",
          "type": "bool"
        }
      ],
      "stateMutability": "view",
      "type": "function"
    },
    {
      "inputs": [
        {
          "internalType": "address",
          "name": "quoteToken",
          "type": "address"
        }
      ],
      "name": "lpTokenOf",
      "outputs": [
        {
          "internalType": "address",
          "name": "",
          "type": "address"
        }
      ],
      "stateMutability": "view",
      "type": "function"
    },
    {
      "inputs": [
        {
          "internalType": "address",
          "name": "",
          "type": "address"
        }
      ],
      "name": "pairLpTokens",
      "outputs": [
        {
          "internalType": "address",
          "name": "",
          "type": "address"
        }
      ],
      "stateMutability": "view",
      "type": "function"
    },
    {
      "inputs": [],
      "name": "pause",
      "outputs": [],
      "stateMutability": "nonpayable",
      "type": "function"
    },
    {
      "inputs": [
        {
          "internalType": "bytes",
          "name": "context",
          "type": "bytes"
        }
      ],
      "name": "pauseWithContext",
      "outputs": [],
      "stateMutability": "nonpayable",
      "type": "function"
    },
    {
      "inputs": [],
      "name": "paused",
      "outputs": [
        {
          "internalType": "bool",
          "name": "",
          "type": "bool"
        }
      ],
      "stateMutability": "view",
      "type": "function"
    },
    {
      "inputs": [
        {
          "internalType": "address",
          "name": "quoteToken",
          "type": "address"
        },
        {
          "internalType": "bool",
          "name": "qerToQuote",
          "type": "bool"
        },
        {
          "internalType": "uint256",
          "name": "amountIn",
          "type": "uint256"
        }
      ],
      "name": "priceImpactBps",
      "outputs": [
        {
          "internalType": "uint256",
          "name": "",
          "type": "uint256"
        }
      ],
      "stateMutability": "view",
      "type": "function"
    },
    {
      "inputs": [],
      "name": "qerToken",
      "outputs": [
        {
          "internalType": "contract IERC20",
          "name": "",
          "type": "address"
        }
      ],
      "stateMutability": "view",
      "type": "function"
    },
    {
      "inputs": [],
      "name": "refreshConfig",
      "outputs": [],
      "stateMutability": "nonpayable",
      "type": "function"
    },
    {
      "inputs": [
        {
          "internalType": "address",
          "name": "quoteToken",
          "type": "address"
        },
        {
          "internalType": "uint256",
          "name": "shareAmount",
          "type": "uint256"
        },
        {
          "internalType": "uint256",
          "name": "minQer",
          "type": "uint256"
        },
        {
          "internalType": "uint256",
          "name": "minQuote",
          "type": "uint256"
        }
      ],
      "name": "removeLiquidity",
      "outputs": [],
      "stateMutability": "nonpayable",
      "type": "function"
    },
    {
      "inputs": [
        {
          "internalType": "address",
          "name": "quoteToken",
          "type": "address"
        },
        {
          "internalType": "uint256",
          "name": "shareAmount",
          "type": "uint256"
        },
        {
          "internalType": "uint256",
          "name": "minQer",
          "type": "uint256"
        },
        {
          "internalType": "uint256",
          "name": "minQuote",
          "type": "uint256"
        },
        {
          "internalType": "bytes",
          "name": "context",
          "type": "bytes"
        }
      ],
      "name": "removeLiquidityWithContext",
      "outputs": [],
      "stateMutability": "nonpayable",
      "type": "function"
    },
    {
      "inputs": [
        {
          "internalType": "bytes32",
          "name": "role",
          "type": "bytes32"
        },
        {
          "internalType": "address",
          "name": "callerConfirmation",
          "type": "address"
        }
      ],
      "name": "renounceRole",
      "outputs": [],
      "stateMutability": "nonpayable",
      "type": "function"
    },
    {
      "inputs": [
        {
          "internalType": "bytes32",
          "name": "role",
          "type": "bytes32"
        },
        {
          "internalType": "address",
          "name": "account",
          "type": "address"
        }
      ],
      "name": "revokeRole",
      "outputs": [],
      "stateMutability": "nonpayable",
      "type": "function"
    },
    {
      "inputs": [
        {
          "internalType": "address",
          "name": "quoteToken",
          "type": "address"
        },
        {
          "internalType": "uint256",
          "name": "feeOverrideBps",
          "type": "uint256"
        }
      ],
      "name": "setPairFee",
      "outputs": [],
      "stateMutability": "nonpayable",
      "type": "function"
    },
    {
      "inputs": [
        {
          "internalType": "address",
          "name": "quoteToken",
          "type": "address"
        },
        {
          "internalType": "address",
          "name": "account",
          "type": "address"
        }
      ],
      "name": "shareOf",
      "outputs": [
        {
          "internalType": "uint256",
          "name": "",
          "type": "uint256"
        }
      ],
      "stateMutability": "view",
      "type": "function"
    },
    {
      "inputs": [],
      "name": "stateManager",
      "outputs": [
        {
          "internalType": "contract StateManager",
          "name": "",
          "type": "address"
        }
      ],
      "stateMutability": "view",
      "type": "function"
    },
    {
      "inputs": [
        {
          "internalType": "bytes4",
          "name": "interfaceId",
          "type": "bytes4"
        }
      ],
      "name": "supportsInterface",
      "outputs": [
        {
          "internalType": "bool",
          "name": "",
          "type": "bool"
        }
      ],
      "stateMutability": "view",
      "type": "function"
    },
    {
      "inputs": [
        {
          "internalType": "address",
          "name": "tokenIn",
          "type": "address"
        },
        {
          "internalType": "address",
          "name": "tokenOut",
          "type": "address"
        },
        {
          "internalType": "uint256",
          "name": "amountIn",
          "type": "uint256"
        },
        {
          "internalType": "uint256",
          "name": "minAmountOut",
          "type": "uint256"
        }
      ],
      "name": "swap",
      "outputs": [
        {
          "internalType": "uint256",
          "name": "amountOut",
          "type": "uint256"
        }
      ],
      "stateMutability": "nonpayable",
      "type": "function"
    },
    {
      "inputs": [
        {
          "internalType": "address",
          "name": "quoteToken",
          "type": "address"
        },
        {
          "internalType": "uint256",
          "name": "amountIn",
          "type": "uint256"
        },
        {
          "internalType": "uint256",
          "name": "minAmountOut",
          "type": "uint256"
        }
      ],
      "name": "swapQerForQuote",
      "outputs": [
        {
          "internalType": "uint256",
          "name": "amountOut",
          "type": "uint256"
        }
      ],
      "stateMutability": "nonpayable",
      "type": "function"
    },
    {
      "inputs": [
        {
          "internalType": "address",
          "name": "quoteToken",
          "type": "address"
        },
        {
          "internalType": "uint256",
          "name": "amountIn",
          "type": "uint256"
        },
        {
          "internalType": "uint256",
          "name": "minAmountOut",
          "type": "uint256"
        }
      ],
      "name": "swapQuoteForQer",
      "outputs": [
        {
          "internalType": "uint256",
          "name": "amountOut",
          "type": "uint256"
        }
      ],
      "stateMutability": "nonpayable",
      "type": "function"
    },
    {
      "inputs": [],
      "name": "unpause",
      "outputs": [],
      "stateMutability": "nonpayable",
      "type": "function"
    },
    {
      "inputs": [
        {
          "internalType": "bytes",
          "name": "context",
          "type": "bytes"
        }
      ],
      "name": "unpauseWithContext",
      "outputs": [],
      "stateMutability": "nonpayable",
      "type": "function"
    },
    {
      "inputs": [
        {
          "internalType": "address[]",
          "name": "tokens",
          "type": "address[]"
        }
      ],
      "name": "updatePairs",
      "outputs": [],
      "stateMutability": "nonpayable",
      "type": "function"
    },
    {
      "inputs": [
        {
          "internalType": "address[]",
          "name": "tokens",
          "type": "address[]"
        },
        {
          "internalType": "bytes",
          "name": "context",
          "type": "bytes"
        }
      ],
      "name": "updatePairsWithContext",
      "outputs": [],
      "stateMutability": "nonpayable",
      "type": "function"
    },
    {
      "inputs": [
        {
          "internalType": "address",
          "name": "newManager",
          "type": "address"
        }
      ],
      "name": "updateStateManager",
      "outputs": [],
      "stateMutability": "nonpayable",
      "type": "function"
    },
    {
      "inputs": [
        {
          "internalType": "address",
          "name": "newManager",
          "type": "address"
        },
        {
          "internalType": "bytes",
          "name": "context",
          "type": "bytes"
        }
      ],
      "name": "updateStateManagerWithContext",
      "outputs": [],
      "stateMutability": "nonpayable",
      "type": "function"
    }
  ],
  "bytecode": "0x60a06040523480156200001157600080fd5b5060405162005c2538038062005c2583398101604081905262000034916200045f565b60016002556001600160a01b038116620000615760405163742ebc8360e11b815260040160405180910390fd5b604080518082018252600d81526c1350525397d0d3d395149050d5609a1b60208201529051632a3948a560e21b815282916001600160a01b0383169163a8e5229491620000b191600401620004de565b602060405180830381865afa158015620000cf573d6000803e3d6000fd5b505050506040513d601f19601f82011682018060405250810190620000f59190620004f3565b6200011357604051631b443aef60e21b815260040160405180910390fd5b604080518082018252600d81526c1350525397d0d3d395149050d5609a1b60208201529051636678a2a560e11b81526000916001600160a01b0384169163ccf1454a916200016491600401620004de565b602060405180830381865afa15801562000182573d6000803e3d6000fd5b505050506040513d601f19601f82011682018060405250810190620001a891906200045f565b90506001600160a01b038116620001d257604051631acbe98760e01b815260040160405180910390fd5b6001600160a01b03818116608052600380546001600160a01b0319169184169190911790556200020162000285565b6003805460ff60a01b1916600160a01b17905562000221600033620002e7565b506200024e7f50a595acb91c1a194de2d871287e3c395838512b0606c06c019cae7ed143021933620002e7565b506200027b7fc26fa636638bc578c9325bedafb70affd40c6e2600abba3014961847a62359ca33620002e7565b5050505062000617565b60408051600160208201523081830152336060820152426080808301919091528251808303909101815260a0909101909152620002e37f8d1165df61758220deca2938ae1851c3d896521bc22e92bc53aa58e21e5ab1218262000396565b5050565b6000828152602081815260408083206001600160a01b038516845290915281205460ff166200038c576000838152602081815260408083206001600160a01b03861684529091529020805460ff19166001179055620003433390565b6001600160a01b0316826001600160a01b0316847f2f8788117e7eff1d82e926ec794901d17c78024a50270940304540a733656f0d60405160405180910390a450600162000390565b5060005b92915050565b600354606090600160a01b900460ff161580620003bc57506003546001600160a01b0316155b15620003d8575060408051602081019091526000815262000390565b6003546040516327cf2eb960e11b81526001600160a01b0390911690634f9e5d72906200040e9083908790879060040162000517565b6000604051808303816000875af11580156200042e573d6000803e3d6000fd5b505050506040513d6000823e601f3d908101601f191682016040526200045891908101906200055f565b9392505050565b6000602082840312156200047257600080fd5b81516001600160a01b03811681146200045857600080fd5b60005b83811015620004a75781810151838201526020016200048d565b50506000910152565b60008151808452620004ca8160208601602086016200048a565b601f01601f19169290920160200192915050565b602081526000620004586020830184620004b0565b6000602082840312156200050657600080fd5b815180151581146200045857600080fd5b60018060a01b0384168152826020820152606060408201526000620005406060830184620004b0565b95945050505050565b634e487b7160e01b600052604160045260246000fd5b6000602082840312156200057257600080fd5b81516001600160401b03808211156200058a57600080fd5b818401915084601f8301126200059f57600080fd5b815181811115620005b457620005b462000549565b604051601f8201601f19908116603f01168101908382118183101715620005df57620005df62000549565b81604052828152876020848701011115620005f957600080fd5b6200060c8360208301602088016200048a565b979650505050505050565b6080516155cf62000656600039600081816102b001528181611e9f0152818161274801528181612a8301528181612f58015261338901526155cf6000f3fe60806040523480156200001157600080fd5b5060043610620002795760003560e01c806391d148541162000155578063c97682f811620000c7578063e63ab1e91162000086578063e63ab1e914620005e8578063e8f549ef14620005ff578063ea175afd1462000627578063fb30c3c31462000631578063fe029156146200064857600080fd5b8063c97682f81462000573578063cb344bb5146200058c578063ce3fb6c614620005a3578063d1e9031514620005ba578063d547741f14620005d157600080fd5b8063a93a897d1162000114578063a93a897d14620004eb578063acd5d4581462000502578063b4c492541462000519578063be0c839b1462000545578063c1a0b07d146200055c57600080fd5b806391d14854146200048657806393ca2f8a146200049d5780639784780314620004b457806398c63c0614620004cb578063a217fddf14620004e257600080fd5b80632e716fb111620001ef5780635c975abb11620001ae5780635c975abb14620004385780635ddf80f0146200044457806365155195146200045b5780637c55ccb314620004725780638456cb59146200047c57600080fd5b80632e716fb114620003bf5780632f2ff15d14620003d357806336568abe14620003ea5780633e99c1e414620004015780633f4ba83a146200042e57600080fd5b80631ece366a116200023c5780631ece366a146200033f578063248a9ca3146200035657806324a9d853146200037c5780632c65173f14620003865780632dd0652314620003b557600080fd5b806301ffc9a7146200027e57806307173d8a14620002aa5780630b3978fc14620002eb5780630cf6ee841462000300578063103fca9c1462000326575b600080fd5b620002956200028f366004620038f5565b6200065f565b60405190151581526020015b60405180910390f35b620002d27f000000000000000000000000000000000000000000000000000000000000000081565b6040516001600160a01b039091168152602001620002a1565b6003546200029590600160a01b900460ff1681565b620003176200031136600462003939565b62000697565b604051908152602001620002a1565b6200033d6200033736600462003a28565b620006a4565b005b6200033d6200035036600462003a7c565b62000881565b620003176200036736600462003ab8565b60009081526020819052604090206001015490565b62000317620008c8565b620002d26200039736600462003939565b6001600160a01b039081166000908152600660205260409020541690565b6200033d620008d9565b600354620002d2906001600160a01b031681565b6200033d620003e436600462003ad2565b6200091f565b6200033d620003fb36600462003ad2565b62000948565b620004186200041236600462003939565b6200097e565b60408051928352602083019190915201620002a1565b6200033d620009cf565b60015460ff1662000295565b6200033d6200045536600462003939565b62000a07565b6200033d6200046c36600462003b50565b62000a34565b6200033d62000a5f565b6200033d62000a6b565b620002956200049736600462003ad2565b62000aa0565b6200033d620004ae36600462003a7c565b62000ac9565b62000317620004c536600462003b96565b62000aff565b6200033d620004dc36600462003bcc565b62000ca3565b62000317600081565b6200033d620004fc36600462003c05565b62000e45565b620003176200051336600462003c32565b62000faf565b620002d26200052a36600462003939565b6006602052600090815260409020546001600160a01b031681565b6200033d6200055636600462003c61565b62001006565b620003176200056d36600462003ce1565b620011be565b6200057d620011d5565b604051620002a1919062003d25565b6200033d6200059d36600462003d74565b62001239565b6200033d620005b436600462003bcc565b620018cd565b62000317620005cb36600462003b96565b62001a6f565b6200033d620005e236600462003ad2565b62001bfb565b620003176000805160206200557a83398151915281565b620003177fc26fa636638bc578c9325bedafb70affd40c6e2600abba3014961847a62359ca81565b6200033d62001c24565b6200033d6200064236600462003c61565b62001c70565b620003176200065936600462003de4565b62001e27565b60006001600160e01b03198216637965db0b60e01b14806200069157506301ffc9a760e01b6001600160e01b03198316145b92915050565b6000620006918262001f72565b6000620006b1816200207b565b6003546001600160a01b03808516911603620006e057604051631eaa4cb160e11b815260040160405180910390fd5b8151156200078f576003546040516327cf2eb960e11b81526001600160a01b0390911690634f9e5d72906200073e9083907f63a8c95ab903266e25610a7f89c15476d21600ae64c198f93a07bfbc57d2eda490879060040162003e7f565b6000604051808303816000875af11580156200075e573d6000803e3d6000fd5b505050506040513d6000823e601f3d908101601f1916820160405262000788919081019062003eb1565b5062000867565b600354604080516001602082015230818301523360608201526001600160a01b0386811660808301524260a0808401919091528351808403909101815260c08301938490526327cf2eb960e11b90935290921691634f9e5d72916200081b9184917f63a8c95ab903266e25610a7f89c15476d21600ae64c198f93a07bfbc57d2eda49160c40162003e7f565b6000604051808303816000875af11580156200083b573d6000803e3d6000fd5b505050506040513d6000823e601f3d908101601f1916820160405262000865919081019062003eb1565b505b620008728362002087565b6200087c620021cf565b505050565b6200088b62002228565b620008956200224d565b604080516000815260208101909152620008b790859085908590859062001c70565b620008c26001600255565b50505050565b6000620008d462002276565b905090565b6000620008e6816200207b565b6003805460ff60a01b191690556040517feb6d36041b7215b4b70b4876a2ebbff5978c463bd252d464c83322d8698f173290600090a150565b6000828152602081905260409020600101546200093c816200207b565b620008c283836200230c565b6001600160a01b0381163314620009725760405163334bd91960e11b815260040160405180910390fd5b6200087c8282620023a4565b6000806200098c8362002413565b620009aa57604051633fb801a560e21b815260040160405180910390fd5b50506001600160a01b0316600090815260056020526040902080546001909101549091565b6000805160206200557a833981519152620009ea816200207b565b60408051600081526020810190915262000a0490620018cd565b50565b600062000a14816200207b565b60408051600081526020810190915262000a30908390620006a4565b5050565b600062000a41816200207b565b6040805160008152602081019091526200087c908490849062001239565b62000a69620021cf565b565b6000805160206200557a83398151915262000a86816200207b565b60408051600081526020810190915262000a049062000ca3565b6000918252602082815260408084206001600160a01b0393909316845291905290205460ff1690565b62000ad362002228565b62000add6200224d565b604080516000815260208101909152620008b790859085908590859062001006565b600062000b0b62002228565b62000b156200224d565b8260000362000b375760405163162908e360e11b815260040160405180910390fd5b600062000b478560008662002536565b6003546040519192506001600160a01b031690634f9e5d729082907f497a7733c30c446bed91d579fce5ede8c3e0fbcdbe90a491d0a07e91d5b88b719062000ba690600190309033908d906000908e908e908d90429060200162003f28565b6040516020818303038152906040526040518463ffffffff1660e01b815260040162000bd59392919062003e7f565b6000604051808303816000875af115801562000bf5573d6000803e3d6000fd5b505050506040513d6000823e601f3d908101601f1916820160405262000c1f919081019062003eb1565b50600062000c2d86620025b4565b6040805160008152602081018890529081018490529091506001600160a01b038716907fa968bb88e642b8e655c315941fc6840af383f0f6ab56d533e050675970da93e39060600160405180910390a262000c8d818733338989620025fa565b9250505062000c9c6001600255565b9392505050565b6000805160206200557a83398151915262000cbe816200207b565b81511562000d6d576003546040516327cf2eb960e11b81526001600160a01b0390911690634f9e5d729062000d1c9083907ffcb9fcbfa83b897fb2d5cf4b58962164105c1e71489a37ef3ae0db3fdce576f690879060040162003e7f565b6000604051808303816000875af115801562000d3c573d6000803e3d6000fd5b505050506040513d6000823e601f3d908101601f1916820160405262000d66919081019062003eb1565b5062000e3b565b6003546040516001600160a01b0390911690634f9e5d729082907ffcb9fcbfa83b897fb2d5cf4b58962164105c1e71489a37ef3ae0db3fdce576f69062000dc09060019030903390429060200162003f7b565b6040516020818303038152906040526040518463ffffffff1660e01b815260040162000def9392919062003e7f565b6000604051808303816000875af115801562000e0f573d6000803e3d6000fd5b505050506040513d6000823e601f3d908101601f1916820160405262000e39919081019062003eb1565b505b62000a30620027d0565b600062000e52816200207b565b600354604080516001602082015230818301523360608201526001600160a01b03868116608083015260a082018690524260c0808401919091528351808403909101815260e08301938490526327cf2eb960e11b9093526000931691634f9e5d729162000ee79184917f1f431f42f02e0091a8130268f376d60f6cb7e2b28524a249bb6e2fcedd8e774e919060e40162003e7f565b6000604051808303816000875af115801562000f07573d6000803e3d6000fd5b505050506040513d6000823e601f3d908101601f1916820160405262000f31919081019062003eb1565b9050805160001462000f595760008180602001905181019062000f55919062003fa5565b9350505b62000f65848462002826565b836001600160a01b03167f392ff112b91832d8e5790c84cb5b58190fb160c4481c0c49b4379410acee1fe18460405162000fa191815260200190565b60405180910390a250505050565b6001600160a01b038216600090815260056020526040812062000fd28462002413565b62000fe257600091505062000691565b6001600160a01b038316600090815260039091016020526040902054905092915050565b6200101062002228565b805115620010bf576003546040516327cf2eb960e11b81526001600160a01b0390911690634f9e5d72906200106e9083907f0edcf8da105d00a36dfa5b27466911f754e89c6d03102075cc61cafbcb9f0a1190869060040162003e7f565b6000604051808303816000875af11580156200108e573d6000803e3d6000fd5b505050506040513d6000823e601f3d908101601f19168201604052620010b8919081019062003eb1565b5062001195565b6003546040516001600160a01b0390911690634f9e5d729082907f0edcf8da105d00a36dfa5b27466911f754e89c6d03102075cc61cafbcb9f0a11906200111a90600190309033908d908d908d908d90429060200162003fbf565b6040516020818303038152906040526040518463ffffffff1660e01b8152600401620011499392919062003e7f565b6000604051808303816000875af115801562001169573d6000803e3d6000fd5b505050506040513d6000823e601f3d908101601f1916820160405262001193919081019062003eb1565b505b6000620011a286620025b4565b9050620011b4818733888888620028c5565b5050505050505050565b6000620011cd84848462002536565b949350505050565b606060048054806020026020016040519081016040528092919081815260200182805480156200122f57602002820191906000526020600020905b81546001600160a01b0316815260019091019060200180831162001210575b5050505050905090565b600062001246816200207b565b815115620012f5576003546040516327cf2eb960e11b81526001600160a01b0390911690634f9e5d7290620012a49083907f1e357e08a995c159abc695936a3440de84740274a05c914cdebfbf4dad86801d90879060040162003e7f565b6000604051808303816000875af1158015620012c4573d6000803e3d6000fd5b505050506040513d6000823e601f3d908101601f19168201604052620012ee919081019062003eb1565b50620013c7565b6003546040516001600160a01b0390911690634f9e5d729082907f1e357e08a995c159abc695936a3440de84740274a05c914cdebfbf4dad86801d906200134c90600190309033908c908c90429060200162004054565b6040516020818303038152906040526040518463ffffffff1660e01b81526004016200137b9392919062003e7f565b6000604051808303816000875af11580156200139b573d6000803e3d6000fd5b505050506040513d6000823e601f3d908101601f19168201604052620013c5919081019062003eb1565b505b60005b600454811015620014e4576000805b858110156200145b5760048381548110620013f857620013f86200409f565b6000918252602090912001546001600160a01b03168787838181106200142257620014226200409f565b905060200201602081019062001439919062003939565b6001600160a01b0316036200145257600191506200145b565b600101620013d9565b5080620014da57600060056000600485815481106200147e576200147e6200409f565b60009182526020808320909101546001600160a01b0316835282019290925260400190208054909150151580620014b9575060008160010154115b15620014d8576040516360fd3a9160e11b815260040160405180910390fd5b505b50600101620013ca565b50620014f360046000620038ac565b60005b838110156200188b5760008585838181106200151657620015166200409f565b90506020020160208101906200152d919062003939565b60048054600181019091557f8a35acfbc15ff81a39ae7d344fd709f28e8600b4aa8c65c6b64bfe7fe36bd19b0180546001600160a01b0319166001600160a01b03838116918217909255600090815260066020526040902054919250166200162f5760006200159c8262002b93565b604051602001620015ae9190620040b5565b60405160208183030381529060405290506000620015cc8362002cf3565b604051602001620015de9190620040f0565b60405160208183030381529060405290506000620015fd838362002e4d565b6001600160a01b0380861660009081526006602052604090208054919092166001600160a01b03199091161790555050505b60006200163c8262002b93565b6040516020016200164e91906200411f565b60408051601f1981840301815290829052600354632a3948a560e21b83529092506001600160a01b03169063a8e52294906200168f9084906004016200415a565b602060405180830381865afa158015620016ad573d6000803e3d6000fd5b505050506040513d601f19601f82011682018060405250810190620016d391906200416f565b620017db5760035460405163b1a6663160e01b81526001600160a01b039091169063b1a66631906200170c90849030906004016200418f565b602060405180830381865afa1580156200172a573d6000803e3d6000fd5b505050506040513d601f19601f820116820180604052508101906200175091906200416f565b6200176e576040516362f5311560e01b815260040160405180910390fd5b600354604051631a0f5c8960e31b81526001600160a01b039091169063d07ae44890620017a6908490600190600090600401620041bb565b600060405180830381600087803b158015620017c157600080fd5b505af1158015620017d6573d6000803e3d6000fd5b505050505b6000620017e88362002e95565b60035460405163b1a6663160e01b81529192506001600160a01b03169063b1a66631906200181d90849030906004016200418f565b602060405180830381865afa1580156200183b573d6000803e3d6000fd5b505050506040513d601f19601f820116820180604052508101906200186191906200416f565b6200187f576040516362f5311560e01b815260040160405180910390fd5b505050600101620014f6565b507fe31e3e383fd7e278be3c288e73fc16c58cf94b4adb276c4f5d191867276665118484604051620018bf929190620041e2565b60405180910390a150505050565b6000805160206200557a833981519152620018e8816200207b565b81511562001997576003546040516327cf2eb960e11b81526001600160a01b0390911690634f9e5d7290620019469083907fe7276a2a84d8de556657ec9cf93a55a7d66f096e529d0582ed08e9e2208b92b590879060040162003e7f565b6000604051808303816000875af115801562001966573d6000803e3d6000fd5b505050506040513d6000823e601f3d908101601f1916820160405262001990919081019062003eb1565b5062001a65565b6003546040516001600160a01b0390911690634f9e5d729082907fe7276a2a84d8de556657ec9cf93a55a7d66f096e529d0582ed08e9e2208b92b590620019ea9060019030903390429060200162003f7b565b6040516020818303038152906040526040518463ffffffff1660e01b815260040162001a199392919062003e7f565b6000604051808303816000875af115801562001a39573d6000803e3d6000fd5b505050506040513d6000823e601f3d908101601f1916820160405262001a63919081019062003eb1565b505b62000a3062002eca565b600062001a7b62002228565b62001a856200224d565b8260000362001aa75760405163162908e360e11b815260040160405180910390fd5b600062001ab78560018662002536565b6003546040519192506001600160a01b031690634f9e5d729082907f497a7733c30c446bed91d579fce5ede8c3e0fbcdbe90a491d0a07e91d5b88b719062001b1590600190309033908d9084908e908e908d90429060200162003f28565b6040516020818303038152906040526040518463ffffffff1660e01b815260040162001b449392919062003e7f565b6000604051808303816000875af115801562001b64573d6000803e3d6000fd5b505050506040513d6000823e601f3d908101601f1916820160405262001b8e919081019062003eb1565b506040805160018152602081018690529081018290526001600160a01b038616907fa968bb88e642b8e655c315941fc6840af383f0f6ab56d533e050675970da93e39060600160405180910390a2600062001be986620025b4565b905062000c8d81873333898962002f06565b60008281526020819052604090206001015462001c18816200207b565b620008c28383620023a4565b600062001c31816200207b565b6003805460ff60a01b1916600160a01b1790556040517f418e517e8fb76ac4ed25882ed0fdb01501f547a91b4239861197b97ce4d0d35590600090a150565b62001c7a62002228565b80511562001d29576003546040516327cf2eb960e11b81526001600160a01b0390911690634f9e5d729062001cd89083907f7b5d719fd3193a0e77777db0de44b6892eb981d0819d7ce8277883f9b950e50890869060040162003e7f565b6000604051808303816000875af115801562001cf8573d6000803e3d6000fd5b505050506040513d6000823e601f3d908101601f1916820160405262001d22919081019062003eb1565b5062001dff565b6003546040516001600160a01b0390911690634f9e5d729082907f7b5d719fd3193a0e77777db0de44b6892eb981d0819d7ce8277883f9b950e5089062001d8490600190309033908d908d908d908d90429060200162003fbf565b6040516020818303038152906040526040518463ffffffff1660e01b815260040162001db39392919062003e7f565b6000604051808303816000875af115801562001dd3573d6000803e3d6000fd5b505050506040513d6000823e601f3d908101601f1916820160405262001dfd919081019062003eb1565b505b600062001e0c86620025b4565b905062001e1e818733888888620030e4565b50505050505050565b600062001e3362002228565b62001e3d6200224d565b8260000362001e5f5760405163162908e360e11b815260040160405180910390fd5b836001600160a01b0316856001600160a01b03160362001e925760405163162908e360e11b815260040160405180910390fd5b6001600160a01b038581167f0000000000000000000000000000000000000000000000000000000000000000821690811491861614811562001ef657600062001edb87620025b4565b905062001eed818833338a8a62002f06565b93505062001f65565b801562001f1c57600062001f0a88620025b4565b905062001eed818933338a8a620025fa565b600062001f2988620025b4565b9050600062001f3e828a33308b6001620025fa565b9050600062001f4d89620025b4565b905062001f5f818a3033868c62002f06565b95505050505b5050620011cd6001600255565b60008062001f808362002e95565b600354604051632a3948a560e21b81529192506001600160a01b03169063a8e522949062001fb39084906004016200415a565b602060405180830381865afa15801562001fd1573d6000803e3d6000fd5b505050506040513d601f19601f8201168201806040525081019062001ff791906200416f565b15620020725760035460405162498bff60e81b81526001600160a01b039091169063498bff00906200202e9084906004016200415a565b602060405180830381865afa1580156200204c573d6000803e3d6000fd5b505050506040513d601f19601f8201168201806040525081019062000c9c919062003fa5565b50600092915050565b62000a0481336200349a565b6003546001600160a01b031680156200216f57604080516001602082015230818301523360608201526001600160a01b0384811660808301524260a0808401919091528351808403909101815260c08301938490526327cf2eb960e11b909352831691634f9e5d7291620021239185917f63a8c95ab903266e25610a7f89c15476d21600ae64c198f93a07bfbc57d2eda4919060c40162003e7f565b6000604051808303816000875af115801562002143573d6000803e3d6000fd5b505050506040513d6000823e601f3d908101601f191682016040526200216d919081019062003eb1565b505b816001600160a01b0316816001600160a01b03167f91705acd37d4d6ac54b60069b896b0a8128d7111cc48c3832d9cb5d8a591308f60405160405180910390a3600380546001600160a01b0319166001600160a01b03841617905562000a305b60006001303342604051602001620021eb949392919062003f7b565b604051602081830303815290604052905062000a307f8d1165df61758220deca2938ae1851c3d896521bc22e92bc53aa58e21e5ab12182620034db565b60015460ff161562000a695760405163d93c066560e01b815260040160405180910390fd5b60028054036200227057604051633ee5aeb560e01b815260040160405180910390fd5b60028055565b600354604080518082018252600c81526b535741505f4645455f42505360a01b6020820152905162498bff60e81b81526000926001600160a01b03169163498bff0091620022c891906004016200415a565b602060405180830381865afa158015620022e6573d6000803e3d6000fd5b505050506040513d601f19601f82011682018060405250810190620008d4919062003fa5565b60006200231a838362000aa0565b6200239b576000838152602081815260408083206001600160a01b03861684529091529020805460ff19166001179055620023523390565b6001600160a01b0316826001600160a01b0316847f2f8788117e7eff1d82e926ec794901d17c78024a50270940304540a733656f0d60405160405180910390a450600162000691565b50600062000691565b6000620023b2838362000aa0565b156200239b576000838152602081815260408083206001600160a01b0386168085529252808320805460ff1916905551339286917ff6391f5c32d9c69d2a47ea670b442974b53935d1edc7fd64eb21e047a839171b9190a450600162000691565b600080620024218362002b93565b6040516020016200243391906200411f565b60408051601f1981840301815290829052600354632a3948a560e21b83529092506001600160a01b03169063a8e5229490620024749084906004016200415a565b602060405180830381865afa15801562002492573d6000803e3d6000fd5b505050506040513d601f19601f82011682018060405250810190620024b891906200416f565b801562000c9c5750600354604051634a9ae70960e11b81526001600160a01b0390911690639535ce1290620024f29084906004016200415a565b602060405180830381865afa15801562002510573d6000803e3d6000fd5b505050506040513d601f19601f8201168201806040525081019062000c9c91906200416f565b6000806200254485620025b4565b805490915015806200255857506001810154155b156200256957600091505062000c9c565b8315620025a25780546200257f9084906200420e565b6200258d6127108562004224565b62002599919062004254565b91505062000c9c565b8281600101546200257f91906200420e565b6001600160a01b0381166000908152600560205260409020620025d78262002413565b620025f557604051633fb801a560e21b815260040160405180910390fd5b919050565b855460009015806200260e57506001870154155b156200262d5760405163bb55fd2760e01b815260040160405180910390fd5b620026446001600160a01b0387168630866200359d565b6000612710620026548862003606565b62002662906127106200426b565b6200266e908662004224565b6200267a919062004254565b88549091506000906200268e908362004224565b90506000828a60010154620026a491906200420e565b9050620026b2818362004254565b935084841080620026c1575083155b15620026e057604051638199f5f360e01b815260040160405180910390fd5b8954841115620027035760405163bb55fd2760e01b815260040160405180910390fd5b858a60010160008282546200271991906200420e565b9091555050895484908b90600090620027349084906200426b565b909155506200277090506001600160a01b037f00000000000000000000000000000000000000000000000000000000000000001688866200362d565b6040805160008152602081018890529081018590526001600160a01b0380891691908b16907f6539110715786174cd4e54c8f97440c8b4e50e131a5d0ea78b478b7c9e795ca2906060015b60405180910390a35050509695505050505050565b620027da62002228565b6001805460ff1916811790557f62e78cea01bee320cd4e420270b5ea74000d11b0c9f74754ebdbfc544b05a258335b6040516001600160a01b03909116815260200160405180910390a1565b61271081106200284957604051630c8249ad60e01b815260040160405180910390fd5b6003546001600160a01b031663366e04e0620028658462002e95565b6040516001600160e01b031960e084901b1681526200288d9190859060009060040162004281565b600060405180830381600087803b158015620028a857600080fd5b505af1158015620028bd573d6000803e3d6000fd5b505050505050565b6001600160a01b0380861660009081526006602052604081205490918291168515806200290b57506001600160a01b038716600090815260038a01602052604090205486115b156200292a5760405163162908e360e11b815260040160405180910390fd5b8860020154600003620029505760405163bb55fd2760e01b815260040160405180910390fd5b6002890154895462002963908862004224565b6200296f919062004254565b9250886002015489600101548762002988919062004224565b62002994919062004254565b915084831080620029a457508382105b15620029c357604051638199f5f360e01b815260040160405180910390fd5b821580620029cf575081155b15620029ee5760405163bb55fd2760e01b815260040160405180910390fd5b6001600160a01b038716600090815260038a0160205260408120805488929062002a1a9084906200426b565b925050819055508589600201600082825462002a3791906200426b565b9091555050885483908a9060009062002a529084906200426b565b925050819055508189600101600082825462002a6f91906200426b565b9091555062002aab90506001600160a01b037f00000000000000000000000000000000000000000000000000000000000000001688856200362d565b62002ac16001600160a01b03891688846200362d565b6001600160a01b0381161562002b3657604051632770a7eb60e21b81526001600160a01b03888116600483015260248201889052821690639dc29fac90604401600060405180830381600087803b15801562002b1c57600080fd5b505af115801562002b31573d6000803e3d6000fd5b505050505b60408051848152602081018490529081018790526001600160a01b0380891691908a16907fbc7d19d505c7ec4db83f3b51f19fb98c4c8a99922e7839d1ee608dfbee29501b9060600160405180910390a350965096945050505050565b60408051602880825260608281019093526000919060208201818036833701905050905060005b601481101562002cec57600062002bd38260136200426b565b62002be090600862004224565b62002bed906002620043a5565b62002c02906001600160a01b03871662004254565b60f81b9050600060108260f81c62002c1b9190620043b3565b60f81b905060008160f81c601062002c349190620043d8565b8360f81c62002c449190620043f7565b60f81b905062002c548262003660565b8562002c6286600262004224565b8151811062002c755762002c756200409f565b60200101906001600160f81b031916908160001a90535062002c978162003660565b8562002ca586600262004224565b62002cb29060016200420e565b8151811062002cc55762002cc56200409f565b60200101906001600160f81b031916908160001a905350506001909201915062002bba9050565b5092915050565b6040805160068082528183019092526060916000919060208201818036833701905050905060005b600381101562002cec57600062002d348260136200426b565b62002d4190600862004224565b62002d4e906002620043a5565b62002d63906001600160a01b03871662004254565b60f81b9050600060108260f81c62002d7c9190620043b3565b60f81b905060008160f81c601062002d959190620043d8565b8360f81c62002da59190620043f7565b60f81b905062002db58262003660565b8562002dc386600262004224565b8151811062002dd65762002dd66200409f565b60200101906001600160f81b031916908160001a90535062002df88162003660565b8562002e0686600262004224565b62002e139060016200420e565b8151811062002e265762002e266200409f565b60200101906001600160f81b031916908160001a905350506001909201915062002d1b9050565b60008083833060405162002e6190620038cc565b62002e6f9392919062004413565b604051809103906000f08015801562002e8c573d6000803e3d6000fd5b50949350505050565b606062002ea28262002b93565b60405160200162002eb4919062004455565b6040516020818303038152906040529050919050565b62002ed46200369b565b6001805460ff191690557f5db9ee0a495bf2e6ff9c91a7834c1ba4fdd244a5e8aa4e537bd38aeae4b073aa3362002809565b8554600090158062002f1a57506001870154155b1562002f395760405163bb55fd2760e01b815260040160405180910390fd5b6001600160a01b038516301462002f815762002f816001600160a01b037f0000000000000000000000000000000000000000000000000000000000000000168630866200359d565b600061271062002f918862003606565b62002f9f906127106200426b565b62002fab908662004224565b62002fb7919062004254565b9050600088600101548262002fcd919062004224565b90506000828a6000015462002fe391906200420e565b905062002ff1818362004254565b93508484108062003000575083155b156200301f57604051638199f5f360e01b815260040160405180910390fd5b8960010154841115620030455760405163bb55fd2760e01b815260040160405180910390fd5b858a60000160008282546200305b91906200420e565b92505081905550838a60010160008282546200307891906200426b565b909155506200309490506001600160a01b038a1688866200362d565b6040805160018152602081018890529081018590526001600160a01b0380891691908b16907f6539110715786174cd4e54c8f97440c8b4e50e131a5d0ea78b478b7c9e795ca290606001620027bb565b6001600160a01b038086166000908152600660205260408120549091168415806200310d575083155b156200312c5760405163162908e360e11b815260040160405180910390fd5b87541580156200313e57506001880154155b80156200314d57506002880154155b1562003193576200316962003163858762004224565b620036bf565b9150816000036200318d5760405163162908e360e11b815260040160405180910390fd5b620032d2565b87541580620031a457506001880154155b15620031c35760405163bb55fd2760e01b815260040160405180910390fd5b8754600289015460009190620031da908862004224565b620031e6919062004254565b9050600089600101548a600201548762003201919062004224565b6200320d919062004254565b90508115806200321b575080155b156200323a576040516368dc1e2560e01b815260040160405180910390fd5b600081831162003256576200325083836200426b565b62003262565b6200326282846200426b565b905060006127108c6002015460326200327c919062004224565b62003288919062004254565b9050600181101562003298575060015b80821115620032ba576040516368dc1e2560e01b815260040160405180910390fd5b828410620032c95782620032cb565b835b9550505050505b82821015620032f457604051638199f5f360e01b815260040160405180910390fd5b6001600160a01b038616600090815260038901602052604081208054849290620033209084906200420e565b92505081905550818860020160008282546200333d91906200420e565b9091555050875485908990600090620033589084906200420e565b92505081905550838860010160008282546200337591906200420e565b90915550620033b290506001600160a01b037f0000000000000000000000000000000000000000000000000000000000000000168730886200359d565b620033c96001600160a01b0388168730876200359d565b6001600160a01b038116156200343e576040516340c10f1960e01b81526001600160a01b038781166004830152602482018490528216906340c10f1990604401600060405180830381600087803b1580156200342457600080fd5b505af115801562003439573d6000803e3d6000fd5b505050505b60408051868152602081018690529081018390526001600160a01b0380881691908916907f4a1a2a6176e9646d9e3157f7c2ab3c499f18337c0b0828cfb28e0a61de4a11f79060600160405180910390a3509695505050505050565b620034a6828262000aa0565b62000a305760405163e2517d3f60e01b81526001600160a01b0382166004820152602481018390526044015b60405180910390fd5b600354606090600160a01b900460ff1615806200350157506003546001600160a01b0316155b156200351d575060408051602081019091526000815262000691565b6003546040516327cf2eb960e11b81526001600160a01b0390911690634f9e5d7290620035539083908790879060040162003e7f565b6000604051808303816000875af115801562003573573d6000803e3d6000fd5b505050506040513d6000823e601f3d908101601f1916820160405262000c9c919081019062003eb1565b6040516001600160a01b038481166024830152838116604483015260648201839052620008c29186918216906323b872dd906084015b604051602081830303815290604052915060e01b6020820180516001600160e01b03838183161783525050505062003836565b600080620036148362001f72565b90508015620036235792915050565b62000c9c62002276565b6040516001600160a01b038381166024830152604482018390526200087c91859182169063a9059cbb90606401620035d3565b6000600a60f883901c10156200368a576200368160f883901c60306200448d565b60f81b92915050565b6200368160f883901c60576200448d565b60015460ff1662000a6957604051638dfc202b60e01b815260040160405180910390fd5b600060018211620036ce575090565b816001600160801b8210620036e85760809190911c9060401b5b680100000000000000008210620037045760409190911c9060201b5b64010000000082106200371c5760209190911c9060101b5b620100008210620037325760109190911c9060081b5b6101008210620037475760089190911c9060041b5b601082106200375b5760049190911c9060021b5b60048210620037685760011b5b600302600190811c908185816200378357620037836200423e565b048201901c905060018185816200379e576200379e6200423e565b048201901c90506001818581620037b957620037b96200423e565b048201901c90506001818581620037d457620037d46200423e565b048201901c90506001818581620037ef57620037ef6200423e565b048201901c905060018185816200380a576200380a6200423e565b048201901c90506200382d8185816200382757620038276200423e565b04821190565b90039392505050565b600080602060008451602086016000885af1806200385a576040513d6000823e3d81fd5b50506000513d915081156200387457806001141562003881565b6001600160a01b0384163b155b15620008c257604051635274afe760e01b81526001600160a01b0385166004820152602401620034d2565b508054600082559060005260206000209081019062000a049190620038da565b6110d080620044aa83390190565b5b80821115620038f15760008155600101620038db565b5090565b6000602082840312156200390857600080fd5b81356001600160e01b03198116811462000c9c57600080fd5b80356001600160a01b0381168114620025f557600080fd5b6000602082840312156200394c57600080fd5b62000c9c8262003921565b634e487b7160e01b600052604160045260246000fd5b604051601f8201601f1916810167ffffffffffffffff8111828210171562003999576200399962003957565b604052919050565b600067ffffffffffffffff821115620039be57620039be62003957565b50601f01601f191660200190565b600082601f830112620039de57600080fd5b8135620039f5620039ef82620039a1565b6200396d565b81815284602083860101111562003a0b57600080fd5b816020850160208301376000918101602001919091529392505050565b6000806040838503121562003a3c57600080fd5b62003a478362003921565b9150602083013567ffffffffffffffff81111562003a6457600080fd5b62003a7285828601620039cc565b9150509250929050565b6000806000806080858703121562003a9357600080fd5b62003a9e8562003921565b966020860135965060408601359560600135945092505050565b60006020828403121562003acb57600080fd5b5035919050565b6000806040838503121562003ae657600080fd5b8235915062003af86020840162003921565b90509250929050565b60008083601f84011262003b1457600080fd5b50813567ffffffffffffffff81111562003b2d57600080fd5b6020830191508360208260051b850101111562003b4957600080fd5b9250929050565b6000806020838503121562003b6457600080fd5b823567ffffffffffffffff81111562003b7c57600080fd5b62003b8a8582860162003b01565b90969095509350505050565b60008060006060848603121562003bac57600080fd5b62003bb78462003921565b95602085013595506040909401359392505050565b60006020828403121562003bdf57600080fd5b813567ffffffffffffffff81111562003bf757600080fd5b620011cd84828501620039cc565b6000806040838503121562003c1957600080fd5b62003c248362003921565b946020939093013593505050565b6000806040838503121562003c4657600080fd5b62003c518362003921565b915062003af86020840162003921565b600080600080600060a0868803121562003c7a57600080fd5b62003c858662003921565b9450602086013593506040860135925060608601359150608086013567ffffffffffffffff81111562003cb757600080fd5b62003cc588828901620039cc565b9150509295509295909350565b801515811462000a0457600080fd5b60008060006060848603121562003cf757600080fd5b62003d028462003921565b9250602084013562003d148162003cd2565b929592945050506040919091013590565b6020808252825182820181905260009190848201906040850190845b8181101562003d685783516001600160a01b03168352928401929184019160010162003d41565b50909695505050505050565b60008060006040848603121562003d8a57600080fd5b833567ffffffffffffffff8082111562003da357600080fd5b62003db18783880162003b01565b9095509350602086013591508082111562003dcb57600080fd5b5062003dda86828701620039cc565b9150509250925092565b6000806000806080858703121562003dfb57600080fd5b62003e068562003921565b935062003e166020860162003921565b93969395505050506040820135916060013590565b60005b8381101562003e4857818101518382015260200162003e2e565b50506000910152565b6000815180845262003e6b81602086016020860162003e2b565b601f01601f19169290920160200192915050565b60018060a01b038416815282602082015260606040820152600062003ea8606083018462003e51565b95945050505050565b60006020828403121562003ec457600080fd5b815167ffffffffffffffff81111562003edc57600080fd5b8201601f8101841362003eee57600080fd5b805162003eff620039ef82620039a1565b81815285602083850101111562003f1557600080fd5b62003ea882602083016020860162003e2b565b60ff9990991689526001600160a01b0397881660208a01529587166040890152939095166060870152901515608086015260a085015260c084019290925260e08301919091526101008201526101200190565b60ff9490941684526001600160a01b03928316602085015291166040830152606082015260800190565b60006020828403121562003fb857600080fd5b5051919050565b60ff9890981688526001600160a01b0396871660208901529486166040880152929094166060860152608085015260a084019290925260c083019190915260e08201526101000190565b8183526000602080850194508260005b8581101562004049576001600160a01b03620040358362003921565b168752958201959082019060010162004019565b509495945050505050565b60ff871681526001600160a01b0386811660208301528516604082015260a0606082018190526000906200408c908301858762004009565b9050826080830152979650505050505050565b634e487b7160e01b600052603260045260246000fd5b635145522d60e01b815260008251620040d681600485016020870162003e2b565b620204c560ec1b6004939091019283015250600701919050565b6405145524c560dc1b8152600082516200411281600585016020870162003e2b565b9190910160050192915050565b7029aba0a81d2820a4a91d2624a9aa22a21d60791b8152600082516200414d81601185016020870162003e2b565b9190910160110192915050565b60208152600062000c9c602083018462003e51565b6000602082840312156200418257600080fd5b815162000c9c8162003cd2565b604081526000620041a4604083018562003e51565b905060018060a01b03831660208301529392505050565b606081526000620041d0606083018662003e51565b93151560208301525060400152919050565b602081526000620011cd60208301848662004009565b634e487b7160e01b600052601160045260246000fd5b80820180821115620006915762000691620041f8565b8082028115828204841417620006915762000691620041f8565b634e487b7160e01b600052601260045260246000fd5b6000826200426657620042666200423e565b500490565b81810381811115620006915762000691620041f8565b60608152600062004296606083018662003e51565b60208301949094525060400152919050565b600181815b80851115620042e9578160001904821115620042cd57620042cd620041f8565b80851615620042db57918102915b93841c9390800290620042ad565b509250929050565b600082620043025750600162000691565b81620043115750600062000691565b81600181146200432a5760028114620043355762004355565b600191505062000691565b60ff841115620043495762004349620041f8565b50506001821b62000691565b5060208310610133831016604e8410600b84101617156200437a575081810a62000691565b620043868383620042a8565b80600019048211156200439d576200439d620041f8565b029392505050565b600062000c9c8383620042f1565b600060ff831680620043c957620043c96200423e565b8060ff84160491505092915050565b60ff818116838216029081169081811462002cec5762002cec620041f8565b60ff8281168282160390811115620006915762000691620041f8565b60608152600062004428606083018662003e51565b82810360208401526200443c818662003e51565b91505060018060a01b0383166040830152949350505050565b6d29aba0a81d2820a4a91d2322a29d60911b8152600082516200448081600e85016020870162003e2b565b91909101600e0192915050565b60ff8181168382160190811115620006915762000691620041f856fe60806040523480156200001157600080fd5b50604051620010d0380380620010d083398101604081905262000034916200023a565b8282600362000044838262000358565b50600462000053828262000358565b505050620000887fb5d76ea7d6754204f53942a3946e524e040a443ab7f5e5b0d14d7e7254cc952482620000bf60201b60201c565b50620000b57f5d3f93bb8306f0dd5fc818db99d945aa802db3b4b72e0d6daaf95c1ec0c4e5a782620000bf565b5050505062000424565b60008281526005602090815260408083206001600160a01b038516845290915281205460ff16620001685760008381526005602090815260408083206001600160a01b03861684529091529020805460ff191660011790556200011f3390565b6001600160a01b0316826001600160a01b0316847f2f8788117e7eff1d82e926ec794901d17c78024a50270940304540a733656f0d60405160405180910390a45060016200016c565b5060005b92915050565b634e487b7160e01b600052604160045260246000fd5b600082601f8301126200019a57600080fd5b81516001600160401b0380821115620001b757620001b762000172565b604051601f8301601f19908116603f01168101908282118183101715620001e257620001e262000172565b81604052838152602092508660208588010111156200020057600080fd5b600091505b8382101562000224578582018301518183018401529082019062000205565b6000602085830101528094505050505092915050565b6000806000606084860312156200025057600080fd5b83516001600160401b03808211156200026857600080fd5b620002768783880162000188565b945060208601519150808211156200028d57600080fd5b506200029c8682870162000188565b604086015190935090506001600160a01b0381168114620002bc57600080fd5b809150509250925092565b600181811c90821680620002dc57607f821691505b602082108103620002fd57634e487b7160e01b600052602260045260246000fd5b50919050565b601f82111562000353576000816000526020600020601f850160051c810160208610156200032e5750805b601f850160051c820191505b818110156200034f578281556001016200033a565b5050505b505050565b81516001600160401b0381111562000374576200037462000172565b6200038c81620003858454620002c7565b8462000303565b602080601f831160018114620003c45760008415620003ab5750858301515b600019600386901b1c1916600185901b1785556200034f565b600085815260208120601f198616915b82811015620003f557888601518255948401946001909101908401620003d4565b5085821015620004145787850151600019600388901b60f8161c191681555b5050505050600190811b01905550565b610c9c80620004346000396000f3fe608060405234801561001057600080fd5b506004361061012c5760003560e01c806340c10f19116100ad578063a217fddf11610071578063a217fddf14610291578063a9059cbb14610299578063d5391393146102ac578063d547741f146102d3578063dd62ed3e146102e657600080fd5b806340c10f191461022757806370a082311461023a57806391d148541461026357806395d89b41146102765780639dc29fac1461027e57600080fd5b8063248a9ca3116100f4578063248a9ca3146101a6578063282c51f3146101c95780632f2ff15d146101f0578063313ce5671461020557806336568abe1461021457600080fd5b806301ffc9a71461013157806306fdde0314610159578063095ea7b31461016e57806318160ddd1461018157806323b872dd14610193575b600080fd5b61014461013f366004610a7f565b61031f565b60405190151581526020015b60405180910390f35b610161610356565b6040516101509190610ab0565b61014461017c366004610b1b565b6103e8565b6002545b604051908152602001610150565b6101446101a1366004610b45565b610400565b6101856101b4366004610b81565b60009081526005602052604090206001015490565b6101857f5d3f93bb8306f0dd5fc818db99d945aa802db3b4b72e0d6daaf95c1ec0c4e5a781565b6102036101fe366004610b9a565b610424565b005b60405160128152602001610150565b610203610222366004610b9a565b61044f565b610203610235366004610b1b565b610487565b610185610248366004610bc6565b6001600160a01b031660009081526020819052604090205490565b610144610271366004610b9a565b610503565b61016161052e565b61020361028c366004610b1b565b61053d565b610185600081565b6101446102a7366004610b1b565b6105ac565b6101857fb5d76ea7d6754204f53942a3946e524e040a443ab7f5e5b0d14d7e7254cc952481565b6102036102e1366004610b9a565b6105ba565b6101856102f4366004610be1565b6001600160a01b03918216600090815260016020908152604080832093909416825291909152205490565b60006001600160e01b03198216637965db0b60e01b148061035057506301ffc9a760e01b6001600160e01b03198316145b92915050565b60606003805461036590610c0b565b80601f016020809104026020016040519081016040528092919081815260200182805461039190610c0b565b80156103de5780601f106103b3576101008083540402835291602001916103de565b820191906000526020600020905b8154815290600101906020018083116103c157829003601f168201915b5050505050905090565b6000336103f68185856105df565b5060019392505050565b60003361040e8582856105ec565b61041985858561066a565b506001949350505050565b60008281526005602052604090206001015461043f816106c9565b61044983836106d6565b50505050565b6001600160a01b03811633146104785760405163334bd91960e11b815260040160405180910390fd5b610482828261076a565b505050565b7fb5d76ea7d6754204f53942a3946e524e040a443ab7f5e5b0d14d7e7254cc95246104b1816106c9565b6104bb83836107d7565b826001600160a01b03167f61c64c1109dc05f5db3c687f5a1243c861b505ae0b311e1d84edb8123722e86f836040516104f691815260200190565b60405180910390a2505050565b60009182526005602090815260408084206001600160a01b0393909316845291905290205460ff1690565b60606004805461036590610c0b565b7f5d3f93bb8306f0dd5fc818db99d945aa802db3b4b72e0d6daaf95c1ec0c4e5a7610567816106c9565b6105718383610811565b826001600160a01b03167fe0618a3fe7eb627a24df9d59eb05ba9750f8feb54aeb8909fdd35c62efd34572836040516104f691815260200190565b6000336103f681858561066a565b6000828152600560205260409020600101546105d5816106c9565b610449838361076a565b6104828383836001610847565b6001600160a01b03838116600090815260016020908152604080832093861683529290522054600019811015610449578181101561065b57604051637dc7a0d960e11b81526001600160a01b038416600482015260248101829052604481018390526064015b60405180910390fd5b61044984848484036000610847565b6001600160a01b03831661069457604051634b637e8f60e11b815260006004820152602401610652565b6001600160a01b0382166106be5760405163ec442f0560e01b815260006004820152602401610652565b61048283838361091c565b6106d38133610a46565b50565b60006106e28383610503565b6107625760008381526005602090815260408083206001600160a01b03861684529091529020805460ff1916600117905561071a3390565b6001600160a01b0316826001600160a01b0316847f2f8788117e7eff1d82e926ec794901d17c78024a50270940304540a733656f0d60405160405180910390a4506001610350565b506000610350565b60006107768383610503565b156107625760008381526005602090815260408083206001600160a01b0386168085529252808320805460ff1916905551339286917ff6391f5c32d9c69d2a47ea670b442974b53935d1edc7fd64eb21e047a839171b9190a4506001610350565b6001600160a01b0382166108015760405163ec442f0560e01b815260006004820152602401610652565b61080d6000838361091c565b5050565b6001600160a01b03821661083b57604051634b637e8f60e11b815260006004820152602401610652565b61080d8260008361091c565b6001600160a01b0384166108715760405163e602df0560e01b815260006004820152602401610652565b6001600160a01b03831661089b57604051634a1406b160e11b815260006004820152602401610652565b6001600160a01b038085166000908152600160209081526040808320938716835292905220829055801561044957826001600160a01b0316846001600160a01b03167f8c5be1e5ebec7d5bd14f71427d1e84f3dd0314c0f7b2291e5b200ac8c7c3b9258460405161090e91815260200190565b60405180910390a350505050565b6001600160a01b03831661094757806002600082825461093c9190610c45565b909155506109b99050565b6001600160a01b0383166000908152602081905260409020548181101561099a5760405163391434e360e21b81526001600160a01b03851660048201526024810182905260448101839052606401610652565b6001600160a01b03841660009081526020819052604090209082900390555b6001600160a01b0382166109d5576002805482900390556109f4565b6001600160a01b03821660009081526020819052604090208054820190555b816001600160a01b0316836001600160a01b03167fddf252ad1be2c89b69c2b068fc378daa952ba7f163c4a11628f55a4df523b3ef83604051610a3991815260200190565b60405180910390a3505050565b610a508282610503565b61080d5760405163e2517d3f60e01b81526001600160a01b038216600482015260248101839052604401610652565b600060208284031215610a9157600080fd5b81356001600160e01b031981168114610aa957600080fd5b9392505050565b60006020808352835180602085015260005b81811015610ade57858101830151858201604001528201610ac2565b506000604082860101526040601f19601f8301168501019250505092915050565b80356001600160a01b0381168114610b1657600080fd5b919050565b60008060408385031215610b2e57600080fd5b610b3783610aff565b946020939093013593505050565b600080600060608486031215610b5a57600080fd5b610b6384610aff565b9250610b7160208501610aff565b9150604084013590509250925092565b600060208284031215610b9357600080fd5b5035919050565b60008060408385031215610bad57600080fd5b82359150610bbd60208401610aff565b90509250929050565b600060208284031215610bd857600080fd5b610aa982610aff565b60008060408385031215610bf457600080fd5b610bfd83610aff565b9150610bbd60208401610aff565b600181811c90821680610c1f57607f821691505b602082108103610c3f57634e487b7160e01b600052602260045260246000fd5b50919050565b8082018082111561035057634e487b7160e01b600052601160045260246000fdfea26469706673582212207259703948a889267550206e75e9f203138d77ff20a9c7f266bc85d20a7ff8be64736f6c6343000818003350a595acb91c1a194de2d871287e3c395838512b0606c06c019cae7ed1430219a26469706673582212202dc2d12bd1778c2ed7a80aa3e1753154fc9f4ee1faa9e614ad5a98df9b2f669764736f6c63430008180033",
  "linkReferences": {},
  "deployedLinkReferences": {}
}