{
  "_format": "hh-sol-artifact-1",
  "contractName": "Token",
  "sourceName": "contracts/Token.sol",
  "abi": [
    {
      "inputs": [
        {
          "internalType": "address",
          "name": "initialStateManager",
          "type": "address"
        }
      ],
      "stateMutability": "nonpayable",
      "type": "constructor"
    },
    {
      "inputs": [],
      "name": "AccessControlBadConfirmation",
      "type": "error"
    },
    {
      "inputs": [
        {
          "internalType": "address",
          "name": "account",
          "type": "address"
        },
        {
          "internalType": "bytes32",
          "name": "neededRole",
          "type": "bytes32"
        }
      ],
      "name": "AccessControlUnauthorizedAccount",
      "type": "error"
    },
    {
      "inputs": [],
      "name": "ECDSAInvalidSignature",
      "type": "error"
    },
    {
      "inputs": [
        {
          "internalType": "uint256",
          "name": "length",
          "type": "uint256"
        }
      ],
      "name": "ECDSAInvalidSignatureLength",
      "type": "error"
    },
    {
      "inputs": [
        {
          "internalType": "bytes32",
          "name": "s",
          "type": "bytes32"
        }
      ],
      "name": "ECDSAInvalidSignatureS",
      "type": "error"
    },
    {
      "inputs": [
        {
          "internalType": "address",
          "name": "spender",
          "type": "address"
        },
        {
          "internalType": "uint256",
          "name": "allowance",
          "type": "uint256"
        },
        {
          "internalType": "uint256",
          "name": "needed",
          "type": "uint256"
        }
      ],
      "name": "ERC20InsufficientAllowance",
      "type": "error"
    },
    {
      "inputs": [
        {
          "internalType": "address",
          "name": "sender",
          "type": "address"
        },
        {
          "internalType": "uint256",
          "name": "balance",
          "type": "uint256"
        },
        {
          "internalType": "uint256",
          "name": "needed",
          "type": "uint256"
        }
      ],
      "name": "ERC20InsufficientBalance",
      "type": "error"
    },
    {
      "inputs": [
        {
          "internalType": "address",
          "name": "approver",
          "type": "address"
        }
      ],
      "name": "ERC20InvalidApprover",
      "type": "error"
    },
    {
      "inputs": [
        {
          "internalType": "address",
          "name": "receiver",
          "type": "address"
        }
      ],
      "name": "ERC20InvalidReceiver",
      "type": "error"
    },
    {
      "inputs": [
        {
          "internalType": "address",
          "name": "sender",
          "type": "address"
        }
      ],
      "name": "ERC20InvalidSender",
      "type": "error"
    },
    {
      "inputs": [
        {
          "internalType": "address",
          "name": "spender",
          "type": "address"
        }
      ],
      "name": "ERC20InvalidSpender",
      "type": "error"
    },
    {
      "inputs": [
        {
          "internalType": "uint256",
          "name": "deadline",
          "type": "uint256"
        }
      ],
      "name": "ERC2612ExpiredSignature",
      "type": "error"
    },
    {
      "inputs": [
        {
          "internalType": "address",
          "name": "signer",
          "type": "address"
        },
        {
          "internalType": "address",
          "name": "owner",
          "type": "address"
        }
      ],
      "name": "ERC2612InvalidSigner",
      "type": "error"
    },
    {
      "inputs": [],
      "name": "EnforcedPause",
      "type": "error"
    },
    {
      "inputs": [],
      "name": "ExpectedPause",
      "type": "error"
    },
    {
      "inputs": [
        {
          "internalType": "address",
          "name": "account",
          "type": "address"
        },
        {
          "internalType": "uint256",
          "name": "currentNonce",
          "type": "uint256"
        }
      ],
      "name": "InvalidAccountNonce",
      "type": "error"
    },
    {
      "inputs": [],
      "name": "InvalidShortString",
      "type": "error"
    },
    {
      "inputs": [
        {
          "internalType": "string",
          "name": "str",
          "type": "string"
        }
      ],
      "name": "StringTooLong",
      "type": "error"
    },
    {
      "anonymous": false,
      "inputs": [
        {
          "indexed": true,
          "internalType": "address",
          "name": "owner",
          "type": "address"
        },
        {
          "indexed": true,
          "internalType": "address",
          "name": "spender",
          "type": "address"
        },
        {
          "indexed": false,
          "internalType": "uint256",
          "name": "value",
          "type": "uint256"
        }
      ],
      "name": "Approval",
      "type": "event"
    },
    {
      "anonymous": false,
      "inputs": [],
      "name": "EIP712DomainChanged",
      "type": "event"
    },
    {
      "anonymous": false,
      "inputs": [],
      "name": "GovernanceDisabled",
      "type": "event"
    },
    {
      "anonymous": false,
      "inputs": [],
      "name": "GovernanceEnabled",
      "type": "event"
    },
    {
      "anonymous": false,
      "inputs": [
        {
          "indexed": false,
          "internalType": "address",
          "name": "account",
          "type": "address"
        }
      ],
      "name": "Paused",
      "type": "event"
    },
    {
      "anonymous": false,
      "inputs": [
        {
          "indexed": true,
          "internalType": "bytes32",
          "name": "role",
          "type": "bytes32"
        },
        {
          "indexed": true,
          "internalType": "bytes32",
          "name": "previousAdminRole",
          "type": "bytes32"
        },
        {
          "indexed": true,
          "internalType": "bytes32",
          "name": "newAdminRole",
          "type": "bytes32"
        }
      ],
      "name": "RoleAdminChanged",
      "type": "event"
    },
    {
      "anonymous": false,
      "inputs": [
        {
          "indexed": true,
          "internalType": "bytes32",
          "name": "role",
          "type": "bytes32"
        },
        {
          "indexed": true,
          "internalType": "address",
          "name": "account",
          "type": "address"
        },
        {
          "indexed": true,
          "internalType": "address",
          "name": "sender",
          "type": "address"
        }
      ],
      "name": "RoleGranted",
      "type": "event"
    },
    {
      "anonymous": false,
      "inputs": [
        {
          "indexed": true,
          "internalType": "bytes32",
          "name": "role",
          "type": "bytes32"
        },
        {
          "indexed": true,
          "internalType": "address",
          "name": "account",
          "type": "address"
        },
        {
          "indexed": true,
          "internalType": "address",
          "name": "sender",
          "type": "address"
        }
      ],
      "name": "RoleRevoked",
      "type": "event"
    },
    {
      "anonymous": false,
      "inputs": [
        {
          "indexed": true,
          "internalType": "address",
          "name": "previousManager",
          "type": "address"
        },
        {
          "indexed": true,
          "internalType": "address",
          "name": "newManager",
          "type": "address"
        }
      ],
      "name": "StateManagerUpdated",
      "type": "event"
    },
    {
      "anonymous": false,
      "inputs": [
        {
          "indexed": true,
          "internalType": "address",
          "name": "from",
          "type": "address"
        },
        {
          "indexed": true,
          "internalType": "address",
          "name": "to",
          "type": "address"
        },
        {
          "indexed": false,
          "internalType": "uint256",
          "name": "value",
          "type": "uint256"
        }
      ],
      "name": "Transfer",
      "type": "event"
    },
    {
      "anonymous": false,
      "inputs": [
        {
          "indexed": false,
          "internalType": "address",
          "name": "account",
          "type": "address"
        }
      ],
      "name": "Unpaused",
      "type": "event"
    },
    {
      "inputs": [],
      "name": "DEFAULT_ADMIN_ROLE",
      "outputs": [
        {
          "internalType": "bytes32",
          "name": "",
          "type": "bytes32"
        }
      ],
      "stateMutability": "view",
      "type": "function"
    },
    {
      "inputs": [],
      "name": "DOMAIN_SEPARATOR",
      "outputs": [
        {
          "internalType": "bytes32",
          "name": "",
          "type": "bytes32"
        }
      ],
      "stateMutability": "view",
      "type": "function"
    },
    {
      "inputs": [],
      "name": "TOTAL_SUPPLY",
      "outputs": [
        {
          "internalType": "uint256",
          "name": "",
          "type": "uint256"
        }
      ],
      "stateMutability": "view",
      "type": "function"
    },
    {
      "inputs": [
        {
          "internalType": "address",
          "name": "owner",
          "type": "address"
        },
        {
          "internalType": "address",
          "name": "spender",
          "type": "address"
        }
      ],
      "name": "allowance",
      "outputs": [
        {
          "internalType": "uint256",
          "name": "",
          "type": "uint256"
        }
      ],
      "stateMutability": "view",
      "type": "function"
    },
    {
      "inputs": [
        {
          "internalType": "address",
          "name": "spender",
          "type": "address"
        },
        {
          "internalType": "uint256",
          "name": "value",
          "type": "uint256"
        }
      ],
      "name": "approve",
      "outputs": [
        {
          "internalType": "bool",
          "name": "",
          "type": "bool"
        }
      ],
      "stateMutability": "nonpayable",
      "type": "function"
    },
    {
      "inputs": [
        {
          "internalType": "address",
          "name": "account",
          "type": "address"
        }
      ],
      "name": "balanceOf",
      "outputs": [
        {
          "internalType": "uint256",
          "name": "",
          "type": "uint256"
        }
      ],
      "stateMutability": "view",
      "type": "function"
    },
    {
      "inputs": [],
      "name": "decimals",
      "outputs": [
        {
          "internalType": "uint8",
          "name": "",
          "type": "uint8"
        }
      ],
      "stateMutability": "view",
      "type": "function"
    },
    {
      "inputs": [],
      "name": "disableGovernance",
      "outputs": [],
      "stateMutability": "nonpayable",
      "type": "function"
    },
    {
      "inputs": [],
      "name": "eip712Domain",
      "outputs": [
        {
          "internalType": "bytes1",
          "name": "fields",
          "type": "bytes1"
        },
        {
          "internalType": "string",
          "name": "name",
          "type": "string"
        },
        {
          "internalType": "string",
          "name": "version",
          "type": "string"
        },
        {
          "internalType": "uint256",
          "name": "chainId",
          "type": "uint256"
        },
        {
          "internalType": "address",
          "name": "verifyingContract",
          "type": "address"
        },
        {
          "internalType": "bytes32",
          "name": "salt",
          "type": "bytes32"
        },
        {
          "internalType": "uint256[]",
          "name": "extensions",
          "type": "uint256[]"
        }
      ],
      "stateMutability": "view",
      "type": "function"
    },
    {
      "inputs": [],
      "name": "enableGovernance",
      "outputs": [],
      "stateMutability": "nonpayable",
      "type": "function"
    },
    {
      "inputs": [
        {
          "internalType": "bytes32",
          "name": "role",
          "type": "bytes32"
        }
      ],
      "name": "getRoleAdmin",
      "outputs": [
        {
          "internalType": "bytes32",
          "name": "",
          "type": "bytes32"
        }
      ],
      "stateMutability": "view",
      "type": "function"
    },
    {
      "inputs": [],
      "name": "governanceEnabled",
      "outputs": [
        {
          "internalType": "bool",
          "name": "",
          "type": "bool"
        }
      ],
      "stateMutability": "view",
      "type": "function"
    },
    {
      "inputs": [
        {
          "internalType": "bytes32",
          "name": "role",
          "type": "bytes32"
        },
        {
          "internalType": "address",
          "name": "account",
          "type": "address"
        }
      ],
      "name": "grantRole",
      "outputs": [],
      "stateMutability": "nonpayable",
      "type": "function"
    },
    {
      "inputs": [
        {
          "internalType": "bytes32",
          "name": "role",
          "type": "bytes32"
        },
        {
          "internalType": "address",
          "name": "account",
          "type": "address"
        }
      ],
      "name": "hasRole",
      "outputs": [
        {
          "internalType": "bool",
          "name": "",
          "type": "bool"
        }
      ],
      "stateMutability": "view",
      "type": "function"
    },
    {
      "inputs": [
        {
          "internalType": "address",
          "name": "to",
          "type": "address"
        },
        {
          "internalType": "uint256",
          "name": "amount",
          "type": "uint256"
        }
      ],
      "name": "mint",
      "outputs": [],
      "stateMutability": "nonpayable",
      "type": "function"
    },
    {
      "inputs": [],
      "name": "name",
      "outputs": [
        {
          "internalType": "string",
          "name": "",
          "type": "string"
        }
      ],
      "stateMutability": "view",
      "type": "function"
    },
    {
      "inputs": [
        {
          "internalType": "address",
          "name": "owner",
          "type": "address"
        }
      ],
      "name": "nonces",
      "outputs": [
        {
          "internalType": "uint256",
          "name": "",
          "type": "uint256"
        }
      ],
      "stateMutability": "view",
      "type": "function"
    },
    {
      "inputs": [],
      "name": "pause",
      "outputs": [],
      "stateMutability": "nonpayable",
      "type": "function"
    },
    {
      "inputs": [],
      "name": "paused",
      "outputs": [
        {
          "internalType": "bool",
          "name": "",
          "type": "bool"
        }
      ],
      "stateMutability": "view",
      "type": "function"
    },
    {
      "inputs": [
        {
          "internalType": "address",
          "name": "owner",
          "type": "address"
        },
        {
          "internalType": "address",
          "name": "spender",
          "type": "address"
        },
        {
          "internalType": "uint256",
          "name": "value",
          "type": "uint256"
        },
        {
          "internalType": "uint256",
          "name": "deadline",
          "type": "uint256"
        },
        {
          "internalType": "uint8",
          "name": "v",
          "type": "uint8"
        },
        {
          "internalType": "bytes32",
          "name": "r",
          "type": "bytes32"
        },
        {
          "internalType": "bytes32",
          "name": "s",
          "type": "bytes32"
        }
      ],
      "name": "permit",
      "outputs": [],
      "stateMutability": "nonpayable",
      "type": "function"
    },
    {
      "inputs": [
        {
          "internalType": "bytes32",
          "name": "role",
          "type": "bytes32"
        },
        {
          "internalType": "address",
          "name": "callerConfirmation",
          "type": "address"
        }
      ],
      "name": "renounceRole",
      "outputs": [],
      "stateMutability": "nonpayable",
      "type": "function"
    },
    {
      "inputs": [
        {
          "internalType": "bytes32",
          "name": "role",
          "type": "bytes32"
        },
        {
          "internalType": "address",
          "name": "account",
          "type": "address"
        }
      ],
      "name": "revokeRole",
      "outputs": [],
      "stateMutability": "nonpayable",
      "type": "function"
    },
    {
      "inputs": [
        {
          "internalType": "address",
          "name": "newManager",
          "type": "address"
        }
      ],
      "name": "setStateManager",
      "outputs": [],
      "stateMutability": "nonpayable",
      "type": "function"
    },
    {
      "inputs": [],
      "name": "stateManager",
      "outputs": [
        {
          "internalType": "address",
          "name": "",
          "type": "address"
        }
      ],
      "stateMutability": "view",
      "type": "function"
    },
    {
      "inputs": [
        {
          "internalType": "bytes4",
          "name": "interfaceId",
          "type": "bytes4"
        }
      ],
      "name": "supportsInterface",
      "outputs": [
        {
          "internalType": "bool",
          "name": "",
          "type": "bool"
        }
      ],
      "stateMutability": "view",
      "type": "function"
    },
    {
      "inputs": [],
      "name": "symbol",
      "outputs": [
        {
          "internalType": "string",
          "name": "",
          "type": "string"
        }
      ],
      "stateMutability": "view",
      "type": "function"
    },
    {
      "inputs": [],
      "name": "totalSupply",
      "outputs": [
        {
          "internalType": "uint256",
          "name": "",
          "type": "uint256"
        }
      ],
      "stateMutability": "view",
      "type": "function"
    },
    {
      "inputs": [
        {
          "internalType": "address",
          "name": "to",
          "type": "address"
        },
        {
          "internalType": "uint256",
          "name": "value",
          "type": "uint256"
        }
      ],
      "name": "transfer",
      "outputs": [
        {
          "internalType": "bool",
          "name": "",
          "type": "bool"
        }
      ],
      "stateMutability": "nonpayable",
      "type": "function"
    },
    {
      "inputs": [
        {
          "internalType": "address",
          "name": "from",
          "type": "address"
        },
        {
          "internalType": "address",
          "name": "to",
          "type": "address"
        },
        {
          "internalType": "uint256",
          "name": "value",
          "type": "uint256"
        }
      ],
      "name": "transferFrom",
      "outputs": [
        {
          "internalType": "bool",
          "name": "",
          "type": "bool"
        }
      ],
      "stateMutability": "nonpayable",
      "type": "function"
    },
    {
      "inputs": [],
      "name": "unpause",
      "outputs": [],
      "stateMutability": "nonpayable",
      "type": "function"
    }
  ],
  "bytecode": "0x6101606040523480156200001257600080fd5b50604051620021b9380380620021b98339810160408190526200003591620003c4565b6040518060400160405280600581526020016428b2b93ab760d91b81525080604051806040016040528060018152602001603160f81b8152506040518060400160405280600581526020016428b2b93ab760d91b8152506040518060400160405280600381526020016228a2a960e91b8152508160039081620000b991906200049d565b506004620000c882826200049d565b50620000da9150839050600562000296565b61012052620000eb81600662000296565b61014052815160208084019190912060e052815190820120610100524660a0526200017960e05161010051604080517f8b73c3c69bb8fe3d512ecc4cf759cc79239f7b179b0ffacaa9a75d522b39400f60208201529081019290925260608201524660808201523060a082015260009060c00160405160208183030381529060405280519060200120905090565b60805250503060c052506001600160a01b038116620001df5760405162461bcd60e51b815260206004820152601660248201527f7374617465206d616e616765722072657175697265640000000000000000000060448201526064015b60405180910390fd5b600a80546001600160a81b0319166001600160a01b03831617905562000207600033620002cf565b50620002347f65d7a28e3265b37a6474929f336521b332c1681b933f6cb9f3376673440d862a33620002cf565b50620002617f82db594318110a04b6349ce48645aa69f0892751bc893d15e61d9e2b9c4630f533620002cf565b506200028e7f9f2df0fed2c77648de5860a4cc508cd0818c85b8b8a1ab4ceeef8d981c8956a633620002cf565b5050620005df565b6000602083511015620002b657620002ae8362000381565b9050620002c9565b81620002c384826200049d565b5060ff90505b92915050565b60008281526009602090815260408083206001600160a01b038516845290915281205460ff16620003785760008381526009602090815260408083206001600160a01b03861684529091529020805460ff191660011790556200032f3390565b6001600160a01b0316826001600160a01b0316847f2f8788117e7eff1d82e926ec794901d17c78024a50270940304540a733656f0d60405160405180910390a4506001620002c9565b506000620002c9565b600080829050601f81511115620003af578260405163305a27a960e01b8152600401620001d6919062000569565b8051620003bc82620005ba565b179392505050565b600060208284031215620003d757600080fd5b81516001600160a01b0381168114620003ef57600080fd5b9392505050565b634e487b7160e01b600052604160045260246000fd5b600181811c908216806200042157607f821691505b6020821081036200044257634e487b7160e01b600052602260045260246000fd5b50919050565b601f82111562000498576000816000526020600020601f850160051c81016020861015620004735750805b601f850160051c820191505b8181101562000494578281556001016200047f565b5050505b505050565b81516001600160401b03811115620004b957620004b9620003f6565b620004d181620004ca84546200040c565b8462000448565b602080601f831160018114620005095760008415620004f05750858301515b600019600386901b1c1916600185901b17855562000494565b600085815260208120601f198616915b828110156200053a5788860151825594840194600190910190840162000519565b5085821015620005595787850151600019600388901b60f8161c191681555b5050505050600190811b01905550565b60006020808352835180602085015260005b8181101562000599578581018301518582016040015282016200057b565b506000604082860101526040601f19601f8301168501019250505092915050565b80516020808301519190811015620004425760001960209190910360031b1b16919050565b60805160a05160c05160e051610100516101205161014051611b7f6200063a60003960006110c00152600061109301526000610e6301526000610e3b01526000610d9601526000610dc001526000610dea0152611b7f6000f3fe608060405234801561001057600080fd5b50600436106101da5760003560e01c80635c975abb1161010457806391d14854116100a2578063d505accf11610071578063d505accf146103dd578063d547741f146103f0578063dd62ed3e14610403578063ea175afd1461043c57600080fd5b806391d14854146103a757806395d89b41146103ba578063a217fddf146103c2578063a9059cbb146103ca57600080fd5b80637ecebe00116100de5780637ecebe001461035f5780638456cb591461037257806384b0196e1461037a578063902d55a51461039557600080fd5b80635c975abb1461031857806370a082311461032357806377a5a62f1461034c57600080fd5b80632dd065231161017c5780633644e5151161014b5780633644e515146102e257806336568abe146102ea5780633f4ba83a146102fd57806340c10f191461030557600080fd5b80632dd065231461028b5780632e716fb1146102955780632f2ff15d146102c0578063313ce567146102d357600080fd5b80630b3978fc116101b85780630b3978fc1461022f57806318160ddd1461024357806323b872dd14610255578063248a9ca31461026857600080fd5b806301ffc9a7146101df57806306fdde0314610207578063095ea7b31461021c575b600080fd5b6101f26101ed366004611739565b610444565b60405190151581526020015b60405180910390f35b61020f61047b565b6040516101fe91906117ba565b6101f261022a3660046117e9565b61050d565b600a546101f290600160a01b900460ff1681565b6002545b6040519081526020016101fe565b6101f2610263366004611813565b610525565b61024761027636600461184f565b60009081526009602052604090206001015490565b610293610549565b005b600a546102a8906001600160a01b031681565b6040516001600160a01b0390911681526020016101fe565b6102936102ce366004611868565b6105ac565b604051601281526020016101fe565b6102476105d7565b6102936102f8366004611868565b6105e6565b61029361061e565b6102936103133660046117e9565b6106b0565b60085460ff166101f2565b610247610331366004611894565b6001600160a01b031660009081526020819052604090205490565b61029361035a366004611894565b610799565b61024761036d366004611894565b6108c2565b6102936108e0565b61038261095f565b6040516101fe97969594939291906118af565b6102476a5be8b1658c6bb9eabc000081565b6101f26103b5366004611868565b6109a5565b61020f6109d0565b610247600081565b6101f26103d83660046117e9565b6109df565b6102936103eb366004611948565b6109ed565b6102936103fe366004611868565b610b27565b6102476104113660046119bb565b6001600160a01b03918216600090815260016020908152604080832093909416825291909152205490565b610293610b4c565b60006001600160e01b03198216637965db0b60e01b148061047557506301ffc9a760e01b6001600160e01b03198316145b92915050565b60606003805461048a906119e5565b80601f01602080910402602001604051908101604052809291908181526020018280546104b6906119e5565b80156105035780601f106104d857610100808354040283529160200191610503565b820191906000526020600020905b8154815290600101906020018083116104e657829003601f168201915b5050505050905090565b60003361051b818585610c06565b5060019392505050565b600033610533858285610c13565b61053e858585610c8c565b506001949350505050565b7f82db594318110a04b6349ce48645aa69f0892751bc893d15e61d9e2b9c4630f561057381610ceb565b600a805460ff60a01b191690556040517feb6d36041b7215b4b70b4876a2ebbff5978c463bd252d464c83322d8698f173290600090a150565b6000828152600960205260409020600101546105c781610ceb565b6105d18383610cf5565b50505050565b60006105e1610d89565b905090565b6001600160a01b038116331461060f5760405163334bd91960e11b815260040160405180910390fd5b6106198282610eb4565b505050565b7f65d7a28e3265b37a6474929f336521b332c1681b933f6cb9f3376673440d862a61064881610ceb565b604080516001602082015230918101919091523360608201524260808201526106a5907fe7276a2a84d8de556657ec9cf93a55a7d66f096e529d0582ed08e9e2208b92b59060a0015b604051602081830303815290604052610f21565b6106ad610fc3565b50565b7f9f2df0fed2c77648de5860a4cc508cd0818c85b8b8a1ab4ceeef8d981c8956a66106da81610ceb565b6001600160a01b0383166107295760405162461bcd60e51b81526020600482015260116024820152701a5b9d985b1a59081c9958da5c1a595b9d607a1b60448201526064015b60405180910390fd5b6a5be8b1658c6bb9eabc00008261073f60025490565b6107499190611a1f565b111561078f5760405162461bcd60e51b81526020600482015260156024820152741d1bdd185b081cdd5c1c1b1e48195e18d959591959605a1b6044820152606401610720565b6106198383611015565b7f82db594318110a04b6349ce48645aa69f0892751bc893d15e61d9e2b9c4630f56107c381610ceb565b6001600160a01b03821661080c5760405162461bcd60e51b815260206004820152601060248201526f1b585b9859d95c881c995c5d5a5c995960821b6044820152606401610720565b600a54604080516001602082015230918101919091526001600160a01b0384811660608301523360808301524260a083015290911690610870907f63a8c95ab903266e25610a7f89c15476d21600ae64c198f93a07bfbc57d2eda49060c001610691565b600a80546001600160a01b0319166001600160a01b0385811691821790925560405190918316907f91705acd37d4d6ac54b60069b896b0a8128d7111cc48c3832d9cb5d8a591308f90600090a3505050565b6001600160a01b038116600090815260076020526040812054610475565b7f65d7a28e3265b37a6474929f336521b332c1681b933f6cb9f3376673440d862a61090a81610ceb565b60408051600160208201523091810191909152336060820152426080820152610957907ffcb9fcbfa83b897fb2d5cf4b58962164105c1e71489a37ef3ae0db3fdce576f69060a001610691565b6106ad61104f565b60006060806000806000606061097361108c565b61097b6110b9565b60408051600080825260208201909252600f60f81b9b939a50919850469750309650945092509050565b60009182526009602090815260408084206001600160a01b0393909316845291905290205460ff1690565b60606004805461048a906119e5565b60003361051b818585610c8c565b83421115610a115760405163313c898160e11b815260048101859052602401610720565b60007f6e71edae12b1b97f4d1f60370fef10105fa2faae0126114a169c64845d6126c9888888610a5e8c6001600160a01b0316600090815260076020526040902080546001810190915590565b6040805160208101969096526001600160a01b0394851690860152929091166060840152608083015260a082015260c0810186905260e0016040516020818303038152906040528051906020012090506000610ab9826110e6565b90506000610ac982878787611113565b9050896001600160a01b0316816001600160a01b031614610b10576040516325c0072360e11b81526001600160a01b0380831660048301528b166024820152604401610720565b610b1b8a8a8a610c06565b50505050505050505050565b600082815260096020526040902060010154610b4281610ceb565b6105d18383610eb4565b7f82db594318110a04b6349ce48645aa69f0892751bc893d15e61d9e2b9c4630f5610b7681610ceb565b600a546001600160a01b0316610bc75760405162461bcd60e51b81526020600482015260166024820152751cdd185d19481b585b9859d95c881c995c5d5a5c995960521b6044820152606401610720565b600a805460ff60a01b1916600160a01b1790556040517f418e517e8fb76ac4ed25882ed0fdb01501f547a91b4239861197b97ce4d0d35590600090a150565b6106198383836001611141565b6001600160a01b038381166000908152600160209081526040808320938616835292905220546000198110156105d15781811015610c7d57604051637dc7a0d960e11b81526001600160a01b03841660048201526024810182905260448101839052606401610720565b6105d184848484036000611141565b6001600160a01b038316610cb657604051634b637e8f60e11b815260006004820152602401610720565b6001600160a01b038216610ce05760405163ec442f0560e01b815260006004820152602401610720565b610619838383611216565b6106ad81336112f3565b6000610d0183836109a5565b610d815760008381526009602090815260408083206001600160a01b03861684529091529020805460ff19166001179055610d393390565b6001600160a01b0316826001600160a01b0316847f2f8788117e7eff1d82e926ec794901d17c78024a50270940304540a733656f0d60405160405180910390a4506001610475565b506000610475565b6000306001600160a01b037f000000000000000000000000000000000000000000000000000000000000000016148015610de257507f000000000000000000000000000000000000000000000000000000000000000046145b15610e0c57507f000000000000000000000000000000000000000000000000000000000000000090565b6105e1604080517f8b73c3c69bb8fe3d512ecc4cf759cc79239f7b179b0ffacaa9a75d522b39400f60208201527f0000000000000000000000000000000000000000000000000000000000000000918101919091527f000000000000000000000000000000000000000000000000000000000000000060608201524660808201523060a082015260009060c00160405160208183030381529060405280519060200120905090565b6000610ec083836109a5565b15610d815760008381526009602090815260408083206001600160a01b0386168085529252808320805460ff1916905551339286917ff6391f5c32d9c69d2a47ea670b442974b53935d1edc7fd64eb21e047a839171b9190a4506001610475565b600a54600160a01b900460ff16610f36575050565b600a546001600160a01b031680610f4c57505050565b6040516327cf2eb960e11b81526001600160a01b03821690634f9e5d7290610f7c90849087908790600401611a56565b6000604051808303816000875af1158015610f9b573d6000803e3d6000fd5b505050506040513d6000823e601f3d908101601f191682016040526105d19190810190611a86565b610fcb61132c565b6008805460ff191690557f5db9ee0a495bf2e6ff9c91a7834c1ba4fdd244a5e8aa4e537bd38aeae4b073aa335b6040516001600160a01b03909116815260200160405180910390a1565b6001600160a01b03821661103f5760405163ec442f0560e01b815260006004820152602401610720565b61104b60008383611216565b5050565b611057611351565b6008805460ff191660011790557f62e78cea01bee320cd4e420270b5ea74000d11b0c9f74754ebdbfc544b05a258610ff83390565b60606105e17f00000000000000000000000000000000000000000000000000000000000000006005611375565b60606105e17f00000000000000000000000000000000000000000000000000000000000000006006611375565b60006104756110f3610d89565b8360405161190160f01b8152600281019290925260228201526042902090565b60008060008061112588888888611420565b92509250925061113582826114ef565b50909695505050505050565b6001600160a01b03841661116b5760405163e602df0560e01b815260006004820152602401610720565b6001600160a01b03831661119557604051634a1406b160e11b815260006004820152602401610720565b6001600160a01b03808516600090815260016020908152604080832093871683529290522082905580156105d157826001600160a01b0316846001600160a01b03167f8c5be1e5ebec7d5bd14f71427d1e84f3dd0314c0f7b2291e5b200ac8c7c3b9258460405161120891815260200190565b60405180910390a350505050565b60085460ff16156112575760405162461bcd60e51b815260206004820152600b60248201526a1451548e881c185d5cd95960aa1b6044820152606401610720565b6001600160a01b0383161580159061127757506001600160a01b03821615155b156112e857604080516001602082015230918101919091526001600160a01b0380851660608301528316608082015260a081018290523360c08201524260e08201526112e8907f9143236d81225394f3bd65b44e6e29fdf4d7ba0773d9bb3f5cc15eb80ba377779061010001610691565b6106198383836115a8565b6112fd82826109a5565b61104b5760405163e2517d3f60e01b81526001600160a01b038216600482015260248101839052604401610720565b60085460ff1661134f57604051638dfc202b60e01b815260040160405180910390fd5b565b60085460ff161561134f5760405163d93c066560e01b815260040160405180910390fd5b606060ff831461138f57611388836116d2565b9050610475565b81805461139b906119e5565b80601f01602080910402602001604051908101604052809291908181526020018280546113c7906119e5565b80156114145780601f106113e957610100808354040283529160200191611414565b820191906000526020600020905b8154815290600101906020018083116113f757829003601f168201915b50505050509050610475565b600080807f7fffffffffffffffffffffffffffffff5d576e7357a4501ddfe92f46681b20a084111561145b57506000915060039050826114e5565b604080516000808252602082018084528a905260ff891692820192909252606081018790526080810186905260019060a0016020604051602081039080840390855afa1580156114af573d6000803e3d6000fd5b5050604051601f1901519150506001600160a01b0381166114db575060009250600191508290506114e5565b9250600091508190505b9450945094915050565b600082600381111561150357611503611b33565b0361150c575050565b600182600381111561152057611520611b33565b0361153e5760405163f645eedf60e01b815260040160405180910390fd5b600282600381111561155257611552611b33565b036115735760405163fce698f760e01b815260048101829052602401610720565b600382600381111561158757611587611b33565b0361104b576040516335e2f38360e21b815260048101829052602401610720565b6001600160a01b0383166115d35780600260008282546115c89190611a1f565b909155506116459050565b6001600160a01b038316600090815260208190526040902054818110156116265760405163391434e360e21b81526001600160a01b03851660048201526024810182905260448101839052606401610720565b6001600160a01b03841660009081526020819052604090209082900390555b6001600160a01b03821661166157600280548290039055611680565b6001600160a01b03821660009081526020819052604090208054820190555b816001600160a01b0316836001600160a01b03167fddf252ad1be2c89b69c2b068fc378daa952ba7f163c4a11628f55a4df523b3ef836040516116c591815260200190565b60405180910390a3505050565b606060006116df83611711565b604080516020808252818301909252919250600091906020820181803683375050509182525060208101929092525090565b600060ff8216601f81111561047557604051632cd44ac360e21b815260040160405180910390fd5b60006020828403121561174b57600080fd5b81356001600160e01b03198116811461176357600080fd5b9392505050565b60005b8381101561178557818101518382015260200161176d565b50506000910152565b600081518084526117a681602086016020860161176a565b601f01601f19169290920160200192915050565b602081526000611763602083018461178e565b80356001600160a01b03811681146117e457600080fd5b919050565b600080604083850312156117fc57600080fd5b611805836117cd565b946020939093013593505050565b60008060006060848603121561182857600080fd5b611831846117cd565b925061183f602085016117cd565b9150604084013590509250925092565b60006020828403121561186157600080fd5b5035919050565b6000806040838503121561187b57600080fd5b8235915061188b602084016117cd565b90509250929050565b6000602082840312156118a657600080fd5b611763826117cd565b60ff60f81b881681526000602060e060208401526118d060e084018a61178e565b83810360408501526118e2818a61178e565b606085018990526001600160a01b038816608086015260a0850187905284810360c08601528551808252602080880193509091019060005b818110156119365783518352928401929184019160010161191a565b50909c9b505050505050505050505050565b600080600080600080600060e0888a03121561196357600080fd5b61196c886117cd565b965061197a602089016117cd565b95506040880135945060608801359350608088013560ff8116811461199e57600080fd5b9699959850939692959460a0840135945060c09093013592915050565b600080604083850312156119ce57600080fd5b6119d7836117cd565b915061188b602084016117cd565b600181811c908216806119f957607f821691505b602082108103611a1957634e487b7160e01b600052602260045260246000fd5b50919050565b8082018082111561047557634e487b7160e01b600052601160045260246000fd5b634e487b7160e01b600052604160045260246000fd5b60018060a01b0384168152826020820152606060408201526000611a7d606083018461178e565b95945050505050565b600060208284031215611a9857600080fd5b815167ffffffffffffffff80821115611ab057600080fd5b818401915084601f830112611ac457600080fd5b815181811115611ad657611ad6611a40565b604051601f8201601f19908116603f01168101908382118183101715611afe57611afe611a40565b81604052828152876020848701011115611b1757600080fd5b611b2883602083016020880161176a565b979650505050505050565b634e487b7160e01b600052602160045260246000fdfea26469706673582212202e8784a5748b40ad682461d7b150a53471f0cf64e5a54ecb701dcf37548c041264736f6c63430008180033",
  "linkReferences": {},
  "deployedLinkReferences": {}
}