{
  "_format": "hh-sol-artifact-1",
  "contractName": "Treasury",
  "sourceName": "contracts/Treasury.sol",
  "abi": [
    {
      "inputs": [
        {
          "internalType": "address",
          "name": "stateManagerAddress",
          "type": "address"
        }
      ],
      "stateMutability": "nonpayable",
      "type": "constructor"
    },
    {
      "inputs": [],
      "name": "AccessControlBadConfirmation",
      "type": "error"
    },
    {
      "inputs": [
        {
          "internalType": "address",
          "name": "account",
          "type": "address"
        },
        {
          "internalType": "bytes32",
          "name": "neededRole",
          "type": "bytes32"
        }
      ],
      "name": "AccessControlUnauthorizedAccount",
      "type": "error"
    },
    {
      "inputs": [],
      "name": "EnforcedPause",
      "type": "error"
    },
    {
      "inputs": [],
      "name": "ExpectedPause",
      "type": "error"
    },
    {
      "inputs": [],
      "name": "ReentrancyGuardReentrantCall",
      "type": "error"
    },
    {
      "inputs": [
        {
          "internalType": "address",
          "name": "token",
          "type": "address"
        }
      ],
      "name": "SafeERC20FailedOperation",
      "type": "error"
    },
    {
      "anonymous": false,
      "inputs": [
        {
          "indexed": true,
          "internalType": "address",
          "name": "token",
          "type": "address"
        }
      ],
      "name": "AssetTracked",
      "type": "event"
    },
    {
      "anonymous": false,
      "inputs": [
        {
          "indexed": true,
          "internalType": "address",
          "name": "token",
          "type": "address"
        }
      ],
      "name": "AssetUntracked",
      "type": "event"
    },
    {
      "anonymous": false,
      "inputs": [
        {
          "indexed": true,
          "internalType": "address",
          "name": "token",
          "type": "address"
        },
        {
          "indexed": true,
          "internalType": "address",
          "name": "from",
          "type": "address"
        },
        {
          "indexed": false,
          "internalType": "uint256",
          "name": "amount",
          "type": "uint256"
        }
      ],
      "name": "Deposited",
      "type": "event"
    },
    {
      "anonymous": false,
      "inputs": [
        {
          "indexed": true,
          "internalType": "bytes32",
          "name": "operation",
          "type": "bytes32"
        },
        {
          "indexed": true,
          "internalType": "address",
          "name": "module",
          "type": "address"
        }
      ],
      "name": "GovernanceApplied",
      "type": "event"
    },
    {
      "anonymous": false,
      "inputs": [
        {
          "indexed": false,
          "internalType": "address",
          "name": "account",
          "type": "address"
        }
      ],
      "name": "Paused",
      "type": "event"
    },
    {
      "anonymous": false,
      "inputs": [
        {
          "indexed": true,
          "internalType": "bytes32",
          "name": "role",
          "type": "bytes32"
        },
        {
          "indexed": true,
          "internalType": "bytes32",
          "name": "previousAdminRole",
          "type": "bytes32"
        },
        {
          "indexed": true,
          "internalType": "bytes32",
          "name": "newAdminRole",
          "type": "bytes32"
        }
      ],
      "name": "RoleAdminChanged",
      "type": "event"
    },
    {
      "anonymous": false,
      "inputs": [
        {
          "indexed": true,
          "internalType": "bytes32",
          "name": "role",
          "type": "bytes32"
        },
        {
          "indexed": true,
          "internalType": "address",
          "name": "account",
          "type": "address"
        },
        {
          "indexed": true,
          "internalType": "address",
          "name": "sender",
          "type": "address"
        }
      ],
      "name": "RoleGranted",
      "type": "event"
    },
    {
      "anonymous": false,
      "inputs": [
        {
          "indexed": true,
          "internalType": "bytes32",
          "name": "role",
          "type": "bytes32"
        },
        {
          "indexed": true,
          "internalType": "address",
          "name": "account",
          "type": "address"
        },
        {
          "indexed": true,
          "internalType": "address",
          "name": "sender",
          "type": "address"
        }
      ],
      "name": "RoleRevoked",
      "type": "event"
    },
    {
      "anonymous": false,
      "inputs": [
        {
          "indexed": false,
          "internalType": "address",
          "name": "account",
          "type": "address"
        }
      ],
      "name": "Unpaused",
      "type": "event"
    },
    {
      "anonymous": false,
      "inputs": [
        {
          "indexed": true,
          "internalType": "address",
          "name": "token",
          "type": "address"
        },
        {
          "indexed": true,
          "internalType": "address",
          "name": "to",
          "type": "address"
        },
        {
          "indexed": false,
          "internalType": "uint256",
          "name": "amount",
          "type": "uint256"
        },
        {
          "indexed": true,
          "internalType": "address",
          "name": "operator",
          "type": "address"
        }
      ],
      "name": "Withdrawn",
      "type": "event"
    },
    {
      "inputs": [],
      "name": "DEFAULT_ADMIN_ROLE",
      "outputs": [
        {
          "internalType": "bytes32",
          "name": "",
          "type": "bytes32"
        }
      ],
      "stateMutability": "view",
      "type": "function"
    },
    {
      "inputs": [],
      "name": "PAUSER_ROLE",
      "outputs": [
        {
          "internalType": "bytes32",
          "name": "",
          "type": "bytes32"
        }
      ],
      "stateMutability": "view",
      "type": "function"
    },
    {
      "inputs": [],
      "name": "WITHDRAW_ROLE",
      "outputs": [
        {
          "internalType": "bytes32",
          "name": "",
          "type": "bytes32"
        }
      ],
      "stateMutability": "view",
      "type": "function"
    },
    {
      "inputs": [
        {
          "internalType": "address",
          "name": "token",
          "type": "address"
        },
        {
          "internalType": "uint256",
          "name": "amount",
          "type": "uint256"
        }
      ],
      "name": "depositERC20",
      "outputs": [],
      "stateMutability": "nonpayable",
      "type": "function"
    },
    {
      "inputs": [
        {
          "internalType": "bytes32",
          "name": "role",
          "type": "bytes32"
        }
      ],
      "name": "getRoleAdmin",
      "outputs": [
        {
          "internalType": "bytes32",
          "name": "",
          "type": "bytes32"
        }
      ],
      "stateMutability": "view",
      "type": "function"
    },
    {
      "inputs": [],
      "name": "governanceEnabled",
      "outputs": [
        {
          "internalType": "bool",
          "name": "",
          "type": "bool"
        }
      ],
      "stateMutability": "view",
      "type": "function"
    },
    {
      "inputs": [
        {
          "internalType": "bytes32",
          "name": "role",
          "type": "bytes32"
        },
        {
          "internalType": "address",
          "name": "account",
          "type": "address"
        }
      ],
      "name": "grantRole",
      "outputs": [],
      "stateMutability": "nonpayable",
      "type": "function"
    },
    {
      "inputs": [
        {
          "internalType": "bytes32",
          "name": "role",
          "type": "bytes32"
        },
        {
          "internalType": "address",
          "name": "account",
          "type": "address"
        }
      ],
      "name": "hasRole",
      "outputs": [
        {
          "internalType": "bool",
          "name": "",
          "type": "bool"
        }
      ],
      "stateMutability": "view",
      "type": "function"
    },
    {
      "inputs": [
        {
          "internalType": "address",
          "name": "token",
          "type": "address"
        }
      ],
      "name": "isTrackedAsset",
      "outputs": [
        {
          "internalType": "bool",
          "name": "",
          "type": "bool"
        }
      ],
      "stateMutability": "view",
      "type": "function"
    },
    {
      "inputs": [],
      "name": "pause",
      "outputs": [],
      "stateMutability": "nonpayable",
      "type": "function"
    },
    {
      "inputs": [],
      "name": "paused",
      "outputs": [
        {
          "internalType": "bool",
          "name": "",
          "type": "bool"
        }
      ],
      "stateMutability": "view",
      "type": "function"
    },
    {
      "inputs": [
        {
          "internalType": "bytes32",
          "name": "role",
          "type": "bytes32"
        },
        {
          "internalType": "address",
          "name": "callerConfirmation",
          "type": "address"
        }
      ],
      "name": "renounceRole",
      "outputs": [],
      "stateMutability": "nonpayable",
      "type": "function"
    },
    {
      "inputs": [
        {
          "internalType": "bytes32",
          "name": "role",
          "type": "bytes32"
        },
        {
          "internalType": "address",
          "name": "account",
          "type": "address"
        }
      ],
      "name": "revokeRole",
      "outputs": [],
      "stateMutability": "nonpayable",
      "type": "function"
    },
    {
      "inputs": [
        {
          "internalType": "bool",
          "name": "enabled",
          "type": "bool"
        }
      ],
      "name": "setGovernanceEnabled",
      "outputs": [],
      "stateMutability": "nonpayable",
      "type": "function"
    },
    {
      "inputs": [
        {
          "internalType": "address",
          "name": "newManager",
          "type": "address"
        }
      ],
      "name": "setStateManager",
      "outputs": [],
      "stateMutability": "nonpayable",
      "type": "function"
    },
    {
      "inputs": [],
      "name": "stateManager",
      "outputs": [
        {
          "internalType": "contract StateManager",
          "name": "",
          "type": "address"
        }
      ],
      "stateMutability": "view",
      "type": "function"
    },
    {
      "inputs": [
        {
          "internalType": "bytes4",
          "name": "interfaceId",
          "type": "bytes4"
        }
      ],
      "name": "supportsInterface",
      "outputs": [
        {
          "internalType": "bool",
          "name": "",
          "type": "bool"
        }
      ],
      "stateMutability": "view",
      "type": "function"
    },
    {
      "inputs": [],
      "name": "trackedAssets",
      "outputs": [
        {
          "internalType": "address[]",
          "name": "",
          "type": "address[]"
        }
      ],
      "stateMutability": "view",
      "type": "function"
    },
    {
      "inputs": [],
      "name": "unpause",
      "outputs": [],
      "stateMutability": "nonpayable",
      "type": "function"
    },
    {
      "inputs": [
        {
          "internalType": "address",
          "name": "token",
          "type": "address"
        }
      ],
      "name": "untrackAsset",
      "outputs": [],
      "stateMutability": "nonpayable",
      "type": "function"
    },
    {
      "inputs": [
        {
          "internalType": "address",
          "name": "token",
          "type": "address"
        },
        {
          "internalType": "address",
          "name": "to",
          "type": "address"
        },
        {
          "internalType": "uint256",
          "name": "amount",
          "type": "uint256"
        }
      ],
      "name": "withdrawERC20",
      "outputs": [],
      "stateMutability": "nonpayable",
      "type": "function"
    },
    {
      "inputs": [
        {
          "internalType": "address payable",
          "name": "to",
          "type": "address"
        },
        {
          "internalType": "uint256",
          "name": "amount",
          "type": "uint256"
        }
      ],
      "name": "withdrawETH",
      "outputs": [],
      "stateMutability": "nonpayable",
      "type": "function"
    },
    {
      "stateMutability": "payable",
      "type": "receive"
    }
  ],
  "bytecode": "0x60806040526003805460ff60a01b191690553480156200001e57600080fd5b5060405162001b9b38038062001b9b8339810160408190526200004191620001da565b60016002556001600160a01b038116620000a15760405162461bcd60e51b815260206004820152601660248201527f7374617465206d616e6167657220726571756972656400000000000000000000604482015260640160405180910390fd5b600380546001600160a01b0319166001600160a01b038316179055620000c96000336200012b565b50620000f67f8883fa58252f6be5f15e0cadf4914ffe42dc5a11cd47d9b10c6234f7d015fe19336200012b565b50620001237f8907f873c9d1574c9e54a9cc2ab3ced11ac002ca3930ad28a84f36bc8e6e1838336200012b565b50506200020c565b6000828152602081815260408083206001600160a01b038516845290915281205460ff16620001d0576000838152602081815260408083206001600160a01b03861684529091529020805460ff19166001179055620001873390565b6001600160a01b0316826001600160a01b0316847f2f8788117e7eff1d82e926ec794901d17c78024a50270940304540a733656f0d60405160405180910390a4506001620001d4565b5060005b92915050565b600060208284031215620001ed57600080fd5b81516001600160a01b03811681146200020557600080fd5b9392505050565b61197f806200021c6000396000f3fe6080604052600436106101395760003560e01c806377a5a62f116100ab57806397feb9261161006f57806397feb926146103d0578063a217fddf146103f0578063ce2661f114610405578063d547741f14610425578063e02023a114610445578063e63ab1e91461047957600080fd5b806377a5a62f14610322578063797ed339146103425780638456cb591461037b5780638801f9c71461039057806391d14854146103b057600080fd5b806336568abe116100fd57806336568abe146102735780633f4ba83a1461029357806344004cc1146102a85780634782f779146102c857806349b27085146102e85780635c975abb1461030a57600080fd5b806301ffc9a7146101875780630b3978fc146101bc578063248a9ca3146101dd5780632e716fb11461021b5780632f2ff15d1461025357600080fd5b366101825760405134815233906000907f8752a472e571a816aea92eec8dae9baf628e840f4929fbcc2d155e6233ff68a79060200160405180910390a361018060006104ad565b005b600080fd5b34801561019357600080fd5b506101a76101a23660046115e0565b61062f565b60405190151581526020015b60405180910390f35b3480156101c857600080fd5b506003546101a790600160a01b900460ff1681565b3480156101e957600080fd5b5061020d6101f8366004611611565b60009081526020819052604090206001015490565b6040519081526020016101b3565b34801561022757600080fd5b5060035461023b906001600160a01b031681565b6040516001600160a01b0390911681526020016101b3565b34801561025f57600080fd5b5061018061026e36600461163f565b610666565b34801561027f57600080fd5b5061018061028e36600461163f565b610691565b34801561029f57600080fd5b506101806106c9565b3480156102b457600080fd5b506101806102c336600461166f565b6107c4565b3480156102d457600080fd5b506101806102e33660046116b0565b6109c1565b3480156102f457600080fd5b506102fd610b9d565b6040516101b391906116dc565b34801561031657600080fd5b5060015460ff166101a7565b34801561032e57600080fd5b5061018061033d366004611729565b610bff565b34801561034e57600080fd5b506101a761035d366004611729565b6001600160a01b031660009081526005602052604090205460ff1690565b34801561038757600080fd5b50610180610d42565b34801561039c57600080fd5b506101806103ab366004611729565b610e3a565b3480156103bc57600080fd5b506101a76103cb36600461163f565b61108c565b3480156103dc57600080fd5b506101806103eb3660046116b0565b6110b5565b3480156103fc57600080fd5b5061020d600081565b34801561041157600080fd5b50610180610420366004611746565b61124a565b34801561043157600080fd5b5061018061044036600461163f565b611274565b34801561045157600080fd5b5061020d7f8907f873c9d1574c9e54a9cc2ab3ced11ac002ca3930ad28a84f36bc8e6e183881565b34801561048557600080fd5b5061020d7f8883fa58252f6be5f15e0cadf4914ffe42dc5a11cd47d9b10c6234f7d015fe1981565b6001600160a01b03811660009081526005602052604090205460ff16156104d15750565b600354604080516001602082015230818301523360608201526001600160a01b0384811660808301524260a0808401919091528351808403909101815260c08301938490526327cf2eb960e11b90935290921691634f9e5d729161055b9184917f889cfe1ac4c7d1d823487c3e79cbf66e00940a76adeccbe1aae91346e9281d7a9160c40161178c565b6000604051808303816000875af115801561057a573d6000803e3d6000fd5b505050506040513d6000823e601f3d908101601f191682016040526105a291908101906117eb565b506001600160a01b038116600081815260056020526040808220805460ff1916600190811790915560048054918201815583527f8a35acfbc15ff81a39ae7d344fd709f28e8600b4aa8c65c6b64bfe7fe36bd19b0180546001600160a01b03191684179055517f4a2ec0919005accc67763a7c56bf461aa9766aa2bc0e52dc6b5e15dc41e6f3cb9190a250565b60006001600160e01b03198216637965db0b60e01b148061066057506301ffc9a760e01b6001600160e01b03198316145b92915050565b60008281526020819052604090206001015461068181611299565b61068b83836112a3565b50505050565b6001600160a01b03811633146106ba5760405163334bd91960e11b815260040160405180910390fd5b6106c48282611335565b505050565b7f8883fa58252f6be5f15e0cadf4914ffe42dc5a11cd47d9b10c6234f7d015fe196106f381611299565b6003546040516001600160a01b0390911690634f9e5d729082907fe7276a2a84d8de556657ec9cf93a55a7d66f096e529d0582ed08e9e2208b92b59061074490600190309033904290602001611898565b6040516020818303038152906040526040518463ffffffff1660e01b81526004016107719392919061178c565b6000604051808303816000875af1158015610790573d6000803e3d6000fd5b505050506040513d6000823e601f3d908101601f191682016040526107b891908101906117eb565b506107c16113a0565b50565b7f8907f873c9d1574c9e54a9cc2ab3ced11ac002ca3930ad28a84f36bc8e6e18386107ee81611299565b6107f66113f2565b6107fe611418565b6001600160a01b038416158061081b57506001600160a01b038316155b80610824575081155b156108695760405162461bcd60e51b815260206004820152601060248201526f696e76616c696420776974686472617760801b60448201526064015b60405180910390fd5b600354604080516001602082015230818301523360608201526001600160a01b03878116608083015286811660a083015260c082018690524260e080840191909152835180840390910181526101008301938490526327cf2eb960e11b90935290921691634f9e5d72916109049184917ff2f41ca3a42bd42af9b1ab4485c2ee0079faf62cfa8655cb98fea2f7bc7f859c916101040161178c565b6000604051808303816000875af1158015610923573d6000803e3d6000fd5b505050506040513d6000823e601f3d908101601f1916820160405261094b91908101906117eb565b506109606001600160a01b0385168484611440565b336001600160a01b0316836001600160a01b0316856001600160a01b03167f889d364b5102aee044ff370e2e6a836584e5618a16dce4f5b191459cf3903e58856040516109af91815260200190565b60405180910390a461068b6001600255565b7f8907f873c9d1574c9e54a9cc2ab3ced11ac002ca3930ad28a84f36bc8e6e18386109eb81611299565b6109f36113f2565b6109fb611418565b6001600160a01b0383161580610a0f575081155b15610a4f5760405162461bcd60e51b815260206004820152601060248201526f696e76616c696420776974686472617760801b6044820152606401610860565b6003546040516001600160a01b0390911690634f9e5d729082907f4d446e740517b282f085fa115bda88647f3ada177273b27efb3b65f2a666cefc90610aa490600190309033908b908b9042906020016118c2565b6040516020818303038152906040526040518463ffffffff1660e01b8152600401610ad19392919061178c565b6000604051808303816000875af1158015610af0573d6000803e3d6000fd5b505050506040513d6000823e601f3d908101601f19168201604052610b1891908101906117eb565b506040516001600160a01b0384169083156108fc029084906000818181858888f19350505050158015610b4f573d6000803e3d6000fd5b5060405182815233906001600160a01b038516906000907f889d364b5102aee044ff370e2e6a836584e5618a16dce4f5b191459cf3903e589060200160405180910390a46106c46001600255565b60606004805480602002602001604051908101604052809291908181526020018280548015610bf557602002820191906000526020600020905b81546001600160a01b03168152600190910190602001808311610bd7575b5050505050905090565b6000610c0a81611299565b6001600160a01b038216610c595760405162461bcd60e51b81526020600482015260166024820152751cdd185d19481b585b9859d95c881c995c5d5a5c995960521b6044820152606401610860565b6003546040516001600160a01b0390911690634f9e5d729082907f63a8c95ab903266e25610a7f89c15476d21600ae64c198f93a07bfbc57d2eda490610caa90600190309033904290602001611898565b6040516020818303038152906040526040518463ffffffff1660e01b8152600401610cd79392919061178c565b6000604051808303816000875af1158015610cf6573d6000803e3d6000fd5b505050506040513d6000823e601f3d908101601f19168201604052610d1e91908101906117eb565b5050600380546001600160a01b0319166001600160a01b0392909216919091179055565b7f8883fa58252f6be5f15e0cadf4914ffe42dc5a11cd47d9b10c6234f7d015fe19610d6c81611299565b6003546040516001600160a01b0390911690634f9e5d729082907ffcb9fcbfa83b897fb2d5cf4b58962164105c1e71489a37ef3ae0db3fdce576f690610dbd90600190309033904290602001611898565b6040516020818303038152906040526040518463ffffffff1660e01b8152600401610dea9392919061178c565b6000604051808303816000875af1158015610e09573d6000803e3d6000fd5b505050506040513d6000823e601f3d908101601f19168201604052610e3191908101906117eb565b506107c161149f565b6000610e4581611299565b6001600160a01b03821660009081526005602052604090205460ff161561108857600354604080516001602082015230818301523360608201526001600160a01b0385811660808301524260a0808401919091528351808403909101815260c08301938490526327cf2eb960e11b90935290921691634f9e5d7291610ef09184917f336abdd8e23d1f730338c9a227fd89fee738da37c74d46297418a85ba1957b389160c40161178c565b6000604051808303816000875af1158015610f0f573d6000803e3d6000fd5b505050506040513d6000823e601f3d908101601f19168201604052610f3791908101906117eb565b506001600160a01b0382166000908152600560205260408120805460ff191690555b6004548110156106c457826001600160a01b031660048281548110610f8057610f806118fc565b6000918252602090912001546001600160a01b0316036110805760048054610faa90600190611912565b81548110610fba57610fba6118fc565b600091825260209091200154600480546001600160a01b039092169183908110610fe657610fe66118fc565b9060005260206000200160006101000a8154816001600160a01b0302191690836001600160a01b03160217905550600480548061102557611025611933565b600082815260208120820160001990810180546001600160a01b03191690559091019091556040516001600160a01b038516917f5f4370c5fc29afccb9dfad0484b85bb73a992213ed5134fb87f9607b0d9b91d191a2505050565b600101610f59565b5050565b6000918252602082815260408084206001600160a01b0393909316845291905290205460ff1690565b6110bd6113f2565b6110c5611418565b6001600160a01b03821615806110d9575080155b156111185760405162461bcd60e51b815260206004820152600f60248201526e1a5b9d985b1a590819195c1bdcda5d608a1b6044820152606401610860565b6003546040516001600160a01b0390911690634f9e5d729082907f7b5d719fd3193a0e77777db0de44b6892eb981d0819d7ce8277883f9b950e5089061116d90600190309033908a908a9042906020016118c2565b6040516020818303038152906040526040518463ffffffff1660e01b815260040161119a9392919061178c565b6000604051808303816000875af11580156111b9573d6000803e3d6000fd5b505050506040513d6000823e601f3d908101601f191682016040526111e191908101906117eb565b506111f76001600160a01b0383163330846114da565b60405181815233906001600160a01b038416907f8752a472e571a816aea92eec8dae9baf628e840f4929fbcc2d155e6233ff68a79060200160405180910390a3611240826104ad565b6110886001600255565b600061125581611299565b5060038054911515600160a01b0260ff60a01b19909216919091179055565b60008281526020819052604090206001015461128f81611299565b61068b8383611335565b6107c18133611513565b60006112af838361108c565b61132d576000838152602081815260408083206001600160a01b03861684529091529020805460ff191660011790556112e53390565b6001600160a01b0316826001600160a01b0316847f2f8788117e7eff1d82e926ec794901d17c78024a50270940304540a733656f0d60405160405180910390a4506001610660565b506000610660565b6000611341838361108c565b1561132d576000838152602081815260408083206001600160a01b0386168085529252808320805460ff1916905551339286917ff6391f5c32d9c69d2a47ea670b442974b53935d1edc7fd64eb21e047a839171b9190a4506001610660565b6113a861154c565b6001805460ff191690557f5db9ee0a495bf2e6ff9c91a7834c1ba4fdd244a5e8aa4e537bd38aeae4b073aa335b6040516001600160a01b03909116815260200160405180910390a1565b60015460ff16156114165760405163d93c066560e01b815260040160405180910390fd5b565b600280540361143a57604051633ee5aeb560e01b815260040160405180910390fd5b60028055565b6040516001600160a01b038381166024830152604482018390526106c491859182169063a9059cbb906064015b604051602081830303815290604052915060e01b6020820180516001600160e01b03838183161783525050505061156f565b6114a76113f2565b6001805460ff1916811790557f62e78cea01bee320cd4e420270b5ea74000d11b0c9f74754ebdbfc544b05a258336113d5565b6040516001600160a01b03848116602483015283811660448301526064820183905261068b9186918216906323b872dd9060840161146d565b61151d828261108c565b6110885760405163e2517d3f60e01b81526001600160a01b038216600482015260248101839052604401610860565b60015460ff1661141657604051638dfc202b60e01b815260040160405180910390fd5b600080602060008451602086016000885af180611592576040513d6000823e3d81fd5b50506000513d915081156115aa5780600114156115b7565b6001600160a01b0384163b155b1561068b57604051635274afe760e01b81526001600160a01b0385166004820152602401610860565b6000602082840312156115f257600080fd5b81356001600160e01b03198116811461160a57600080fd5b9392505050565b60006020828403121561162357600080fd5b5035919050565b6001600160a01b03811681146107c157600080fd5b6000806040838503121561165257600080fd5b8235915060208301356116648161162a565b809150509250929050565b60008060006060848603121561168457600080fd5b833561168f8161162a565b9250602084013561169f8161162a565b929592945050506040919091013590565b600080604083850312156116c357600080fd5b82356116ce8161162a565b946020939093013593505050565b6020808252825182820181905260009190848201906040850190845b8181101561171d5783516001600160a01b0316835292840192918401916001016116f8565b50909695505050505050565b60006020828403121561173b57600080fd5b813561160a8161162a565b60006020828403121561175857600080fd5b8135801515811461160a57600080fd5b60005b8381101561178357818101518382015260200161176b565b50506000910152565b60018060a01b038416815282602082015260606040820152600082518060608401526117bf816080850160208701611768565b601f01601f191691909101608001949350505050565b634e487b7160e01b600052604160045260246000fd5b6000602082840312156117fd57600080fd5b815167ffffffffffffffff8082111561181557600080fd5b818401915084601f83011261182957600080fd5b81518181111561183b5761183b6117d5565b604051601f8201601f19908116603f01168101908382118183101715611863576118636117d5565b8160405282815287602084870101111561187c57600080fd5b61188d836020830160208801611768565b979650505050505050565b60ff9490941684526001600160a01b03928316602085015291166040830152606082015260800190565b60ff9690961686526001600160a01b039485166020870152928416604086015292166060840152608083019190915260a082015260c00190565b634e487b7160e01b600052603260045260246000fd5b8181038181111561066057634e487b7160e01b600052601160045260246000fd5b634e487b7160e01b600052603160045260246000fdfea26469706673582212202091816a7b3fc088519c058b2af987870dffeedcaf1ac42cce809c58ece702ae64736f6c63430008180033",
  "linkReferences": {},
  "deployedLinkReferences": {}
}